{"abi":[{"type":"constructor","inputs":[],"stateMutability":"nonpayable"},{"type":"function","name":"approve","inputs":[{"name":"to","type":"address","internalType":"address"},{"name":"tokenId","type":"uint256","internalType":"uint256"}],"outputs":[],"stateMutability":"nonpayable"},{"type":"function","name":"balanceOf","inputs":[{"name":"owner","type":"address","internalType":"address"}],"outputs":[{"name":"","type":"uint256","internalType":"uint256"}],"stateMutability":"view"},{"type":"function","name":"counter","inputs":[],"outputs":[{"name":"","type":"uint256","internalType":"uint256"}],"stateMutability":"view"},{"type":"function","name":"getApproved","inputs":[{"name":"tokenId","type":"uint256","internalType":"uint256"}],"outputs":[{"name":"","type":"address","internalType":"address"}],"stateMutability":"view"},{"type":"function","name":"getHaiku","inputs":[{"name":"_haikuId","type":"uint256","internalType":"uint256"}],"outputs":[{"name":"haiku","type":"tuple","internalType":"struct HaikuNFT.Haiku","components":[{"name":"author","type":"address","internalType":"address"},{"name":"line1","type":"string","internalType":"string"},{"name":"line2","type":"string","internalType":"string"},{"name":"line3","type":"string","internalType":"string"}]}],"stateMutability":"view"},{"type":"function","name":"getHaikusByAuthor","inputs":[{"name":"_author","type":"address","internalType":"address"}],"outputs":[{"name":"authorHaikus","type":"tuple[]","internalType":"struct HaikuNFT.Haiku[]","components":[{"name":"author","type":"address","internalType":"address"},{"name":"line1","type":"string","internalType":"string"},{"name":"line2","type":"string","internalType":"string"},{"name":"line3","type":"string","internalType":"string"}]}],"stateMutability":"view"},{"type":"function","name":"getMySharedHaikus","inputs":[],"outputs":[{"name":"sharedHaikuData","type":"tuple[]","internalType":"struct HaikuNFT.Haiku[]","components":[{"name":"author","type":"address","internalType":"address"},{"name":"line1","type":"string","internalType":"string"},{"name":"line2","type":"string","internalType":"string"},{"name":"line3","type":"string","internalType":"string"}]}],"stateMutability":"view"},{"type":"function","name":"getSharedHaikuIds","inputs":[{"name":"_address","type":"address","internalType":"address"}],"outputs":[{"name":"","type":"uint256[]","internalType":"uint256[]"}],"stateMutability":"view"},{"type":"function","name":"getTotalHaikus","inputs":[],"outputs":[{"name":"","type":"uint256","internalType":"uint256"}],"stateMutability":"view"},{"type":"function","name":"haikus","inputs":[{"name":"","type":"uint256","internalType":"uint256"}],"outputs":[{"name":"author","type":"address","internalType":"address"},{"name":"line1","type":"string","internalType":"string"},{"name":"line2","type":"string","internalType":"string"},{"name":"line3","type":"string","internalType":"string"}],"stateMutability":"view"},{"type":"function","name":"isApprovedForAll","inputs":[{"name":"owner","type":"address","internalType":"address"},{"name":"operator","type":"address","internalType":"address"}],"outputs":[{"name":"","type":"bool","internalType":"bool"}],"stateMutability":"view"},{"type":"function","name":"mintHaiku","inputs":[{"name":"_line1","type":"string","internalType":"string"},{"name":"_line2","type":"string","internalType":"string"},{"name":"_line3","type":"string","internalType":"string"}],"outputs":[],"stateMutability":"nonpayable"},{"type":"function","name":"name","inputs":[],"outputs":[{"name":"","type":"string","internalType":"string"}],"stateMutability":"view"},{"type":"function","name":"ownerOf","inputs":[{"name":"tokenId","type":"uint256","internalType":"uint256"}],"outputs":[{"name":"","type":"address","internalType":"address"}],"stateMutability":"view"},{"type":"function","name":"safeTransferFrom","inputs":[{"name":"from","type":"address","internalType":"address"},{"name":"to","type":"address","internalType":"address"},{"name":"tokenId","type":"uint256","internalType":"uint256"}],"outputs":[],"stateMutability":"nonpayable"},{"type":"function","name":"safeTransferFrom","inputs":[{"name":"from","type":"address","internalType":"address"},{"name":"to","type":"address","internalType":"address"},{"name":"tokenId","type":"uint256","internalType":"uint256"},{"name":"data","type":"bytes","internalType":"bytes"}],"outputs":[],"stateMutability":"nonpayable"},{"type":"function","name":"setApprovalForAll","inputs":[{"name":"operator","type":"address","internalType":"address"},{"name":"approved","type":"bool","internalType":"bool"}],"outputs":[],"stateMutability":"nonpayable"},{"type":"function","name":"shareHaiku","inputs":[{"name":"_to","type":"address","internalType":"address"},{"name":"_haikuId","type":"uint256","internalType":"uint256"}],"outputs":[],"stateMutability":"nonpayable"},{"type":"function","name":"sharedHaikus","inputs":[{"name":"","type":"address","internalType":"address"},{"name":"","type":"uint256","internalType":"uint256"}],"outputs":[{"name":"","type":"uint256","internalType":"uint256"}],"stateMutability":"view"},{"type":"function","name":"supportsInterface","inputs":[{"name":"interfaceId","type":"bytes4","internalType":"bytes4"}],"outputs":[{"name":"","type":"bool","internalType":"bool"}],"stateMutability":"view"},{"type":"function","name":"symbol","inputs":[],"outputs":[{"name":"","type":"string","internalType":"string"}],"stateMutability":"view"},{"type":"function","name":"tokenURI","inputs":[{"name":"tokenId","type":"uint256","internalType":"uint256"}],"outputs":[{"name":"","type":"string","internalType":"string"}],"stateMutability":"view"},{"type":"function","name":"transferFrom","inputs":[{"name":"from","type":"address","internalType":"address"},{"name":"to","type":"address","internalType":"address"},{"name":"tokenId","type":"uint256","internalType":"uint256"}],"outputs":[],"stateMutability":"nonpayable"},{"type":"event","name":"Approval","inputs":[{"name":"owner","type":"address","indexed":true,"internalType":"address"},{"name":"approved","type":"address","indexed":true,"internalType":"address"},{"name":"tokenId","type":"uint256","indexed":true,"internalType":"uint256"}],"anonymous":false},{"type":"event","name":"ApprovalForAll","inputs":[{"name":"owner","type":"address","indexed":true,"internalType":"address"},{"name":"operator","type":"address","indexed":true,"internalType":"address"},{"name":"approved","type":"bool","indexed":false,"internalType":"bool"}],"anonymous":false},{"type":"event","name":"HaikuMinted","inputs":[{"name":"tokenId","type":"uint256","indexed":true,"internalType":"uint256"},{"name":"author","type":"address","indexed":true,"internalType":"address"},{"name":"line1","type":"string","indexed":false,"internalType":"string"},{"name":"line2","type":"string","indexed":false,"internalType":"string"},{"name":"line3","type":"string","indexed":false,"internalType":"string"}],"anonymous":false},{"type":"event","name":"HaikuShared","inputs":[{"name":"haikuId","type":"uint256","indexed":true,"internalType":"uint256"},{"name":"from","type":"address","indexed":true,"internalType":"address"},{"name":"to","type":"address","indexed":true,"internalType":"address"}],"anonymous":false},{"type":"event","name":"Transfer","inputs":[{"name":"from","type":"address","indexed":true,"internalType":"address"},{"name":"to","type":"address","indexed":true,"internalType":"address"},{"name":"tokenId","type":"uint256","indexed":true,"internalType":"uint256"}],"anonymous":false},{"type":"error","name":"HaikuNotUnique","inputs":[]},{"type":"error","name":"NoHaikusShared","inputs":[]},{"type":"error","name":"NotYourHaiku","inputs":[{"name":"haikuId","type":"uint256","internalType":"uint256"}]}],"bytecode":{"object":"0x608060405234801562000010575f80fd5b506040518060400160405280600881526020017f4861696b754e46540000000000000000000000000000000000000000000000008152506040518060400160405280600581526020017f4841494b55000000000000000000000000000000000000000000000000000000815250815f90816200008d91906200042b565b5080600190816200009f91906200042b565b5050506001600881905550600660405180608001604052805f73ffffffffffffffffffffffffffffffffffffffff16815260200160405180602001604052805f815250815260200160405180602001604052805f815250815260200160405180602001604052805f815250815250908060018154018082558091505060019003905f5260205f2090600402015f909190919091505f820151815f015f6101000a81548173ffffffffffffffffffffffffffffffffffffffff021916908373ffffffffffffffffffffffffffffffffffffffff16021790555060208201518160010190816200018e91906200042b565b506040820151816002019081620001a691906200042b565b506060820151816003019081620001be91906200042b565b5050506200050f565b5f81519050919050565b7f4e487b71000000000000000000000000000000000000000000000000000000005f52604160045260245ffd5b7f4e487b71000000000000000000000000000000000000000000000000000000005f52602260045260245ffd5b5f60028204905060018216806200024357607f821691505b602082108103620002595762000258620001fe565b5b50919050565b5f819050815f5260205f209050919050565b5f6020601f8301049050919050565b5f82821b905092915050565b5f60088302620002bd7fffffffffffffffffffffffffffffffffffffffffffffffffffffffffffffffff8262000280565b620002c9868362000280565b95508019841693508086168417925050509392505050565b5f819050919050565b5f819050919050565b5f620003136200030d6200030784620002e1565b620002ea565b620002e1565b9050919050565b5f819050919050565b6200032e83620002f3565b620003466200033d826200031a565b8484546200028c565b825550505050565b5f90565b6200035c6200034e565b6200036981848462000323565b505050565b5b818110156200039057620003845f8262000352565b6001810190506200036f565b5050565b601f821115620003df57620003a9816200025f565b620003b48462000271565b81016020851015620003c4578190505b620003dc620003d38562000271565b8301826200036e565b50505b505050565b5f82821c905092915050565b5f620004015f1984600802620003e4565b1980831691505092915050565b5f6200041b8383620003f0565b9150826002028217905092915050565b6200043682620001c7565b67ffffffffffffffff811115620004525762000451620001d1565b5b6200045e82546200022b565b6200046b82828562000394565b5f60209050601f831160018114620004a1575f84156200048c578287015190505b6200049885826200040e565b86555062000507565b601f198416620004b1866200025f565b5f5b82811015620004da57848901518255600182019150602085019450602081019050620004b3565b86831015620004fa5784890151620004f6601f891682620003f0565b8355505b6001600288020188555050505b505050505050565b614a37806200051d5f395ff3fe608060405234801561000f575f80fd5b506004361061014b575f3560e01c806370a08231116100c1578063b88d4fde1161007a578063b88d4fde146103c2578063c87b56dd146103de578063d30838e21461040e578063e985e9c51461043e578063ed1292e01461046e578063fb6934691461048c5761014b565b806370a08231146102c55780637cb82b2a146102f55780638e667f571461032857806395d89b411461035857806397afe82d14610376578063a22cb465146103a65761014b565b806323b872dd1161011357806323b872dd14610205578063350fe1651461022157806342842e0e1461023d57806349af5bfe1461025957806361bc221a146102775780636352211e146102955761014b565b806301ffc9a71461014f57806306fdde031461017f578063081812fc1461019d5780630884d540146101cd578063095ea7b3146101e9575b5f80fd5b610169600480360381019061016491906130df565b6104bc565b6040516101769190613124565b60405180910390f35b61018761059d565b60405161019491906131c7565b60405180910390f35b6101b760048036038101906101b2919061321a565b61062c565b6040516101c49190613284565b60405180910390f35b6101e760048036038101906101e291906132c7565b61066e565b005b61020360048036038101906101fe91906132c7565b6107a6565b005b61021f600480360381019061021a9190613305565b6108bc565b005b61023b60048036038101906102369190613481565b61091c565b005b61025760048036038101906102529190613305565b610c14565b005b610261610c33565b60405161026e91906136a5565b60405180910390f35b61027f610fdd565b60405161028c91906136d4565b60405180910390f35b6102af60048036038101906102aa919061321a565b610fe3565b6040516102bc9190613284565b60405180910390f35b6102df60048036038101906102da91906136ed565b611067565b6040516102ec91906136d4565b60405180910390f35b61030f600480360381019061030a919061321a565b61111b565b60405161031f9493929190613718565b60405180910390f35b610342600480360381019061033d919061321a565b611307565b60405161034f91906137de565b60405180910390f35b610360611597565b60405161036d91906131c7565b60405180910390f35b610390600480360381019061038b91906132c7565b611627565b60405161039d91906136d4565b60405180910390f35b6103c060048036038101906103bb9190613828565b611652565b005b6103dc60048036038101906103d79190613904565b611668565b005b6103f860048036038101906103f3919061321a565b6116ca565b60405161040591906131c7565b60405180910390f35b610428600480360381019061042391906136ed565b6119b1565b6040516104359190613a3b565b60405180910390f35b61045860048036038101906104539190613a5b565b611a44565b6040516104659190613124565b60405180910390f35b610476611ad2565b60405161048391906136d4565b60405180910390f35b6104a660048036038101906104a191906136ed565b611aea565b6040516104b391906136a5565b60405180910390f35b5f7f80ac58cd000000000000000000000000000000000000000000000000000000007bffffffffffffffffffffffffffffffffffffffffffffffffffffffff1916827bffffffffffffffffffffffffffffffffffffffffffffffffffffffff1916148061058657507f5b5e139f000000000000000000000000000000000000000000000000000000007bffffffffffffffffffffffffffffffffffffffffffffffffffffffff1916827bffffffffffffffffffffffffffffffffffffffffffffffffffffffff1916145b80610596575061059582611eec565b5b9050919050565b60605f80546105ab90613ac6565b80601f01602080910402602001604051908101604052809291908181526020018280546105d790613ac6565b80156106225780601f106105f957610100808354040283529160200191610622565b820191905f5260205f20905b81548152906001019060200180831161060557829003601f168201915b5050505050905090565b5f61063682611f55565b60045f8381526020019081526020015f205f9054906101000a900473ffffffffffffffffffffffffffffffffffffffff169050919050565b3373ffffffffffffffffffffffffffffffffffffffff1661068e82610fe3565b73ffffffffffffffffffffffffffffffffffffffff16146106e657806040517f03ce4e320000000000000000000000000000000000000000000000000000000081526004016106dd91906136d4565b60405180910390fd5b60075f8373ffffffffffffffffffffffffffffffffffffffff1673ffffffffffffffffffffffffffffffffffffffff1681526020019081526020015f2081908060018154018082558091505060019003905f5260205f20015f90919091909150558173ffffffffffffffffffffffffffffffffffffffff163373ffffffffffffffffffffffffffffffffffffffff16827f16916ab32e25ab761bcf573ef638e51a5596c821e120e4a3b981ba1012f0d72260405160405180910390a45050565b5f6107b082610fe3565b90508073ffffffffffffffffffffffffffffffffffffffff168373ffffffffffffffffffffffffffffffffffffffff1603610820576040517f08c379a000000000000000000000000000000000000000000000000000000000815260040161081790613b66565b60405180910390fd5b8073ffffffffffffffffffffffffffffffffffffffff1661083f611fa0565b73ffffffffffffffffffffffffffffffffffffffff16148061086e575061086d81610868611fa0565b611a44565b5b6108ad576040517f08c379a00000000000000000000000000000000000000000000000000000000081526004016108a490613bf4565b60405180910390fd5b6108b78383611fa7565b505050565b6108cd6108c7611fa0565b8261205d565b61090c576040517f08c379a000000000000000000000000000000000000000000000000000000000815260040161090390613c82565b60405180910390fd5b6109178383836120f1565b505050565b5f610926846123dd565b90505f610932846123dd565b90505f61093e846123dd565b90506009836040516109509190613cda565b90815260200160405180910390205f9054906101000a900460ff168061099d57506009826040516109819190613cda565b90815260200160405180910390205f9054906101000a900460ff165b806109cf57506009816040516109b39190613cda565b90815260200160405180910390205f9054906101000a900460ff165b15610a06576040517f693a889e00000000000000000000000000000000000000000000000000000000815260040160405180910390fd5b6001600984604051610a189190613cda565b90815260200160405180910390205f6101000a81548160ff0219169083151502179055506001600983604051610a4e9190613cda565b90815260200160405180910390205f6101000a81548160ff0219169083151502179055506001600982604051610a849190613cda565b90815260200160405180910390205f6101000a81548160ff0219169083151502179055505f60405180608001604052803373ffffffffffffffffffffffffffffffffffffffff168152602001888152602001878152602001868152509050600681908060018154018082558091505060019003905f5260205f2090600402015f909190919091505f820151815f015f6101000a81548173ffffffffffffffffffffffffffffffffffffffff021916908373ffffffffffffffffffffffffffffffffffffffff1602179055506020820151816001019081610b649190613e8d565b506040820151816002019081610b7a9190613e8d565b506060820151816003019081610b909190613e8d565b505050610b9f336008546125ce565b3373ffffffffffffffffffffffffffffffffffffffff166008547f96d784e4f2db8e5eca7741f53821a91a5d9e8b5cec408ec0d6a81a8e7cfc7e17898989604051610bec93929190613f5c565b60405180910390a360085f815480929190610c0690613fd3565b919050555050505050505050565b610c2e83838360405180602001604052805f815250611668565b505050565b60605f60075f3373ffffffffffffffffffffffffffffffffffffffff1673ffffffffffffffffffffffffffffffffffffffff1681526020019081526020015f20805480602002602001604051908101604052809291908181526020018280548015610cbb57602002820191905f5260205f20905b815481526020019060010190808311610ca7575b505050505090505f815103610cfc576040517ff8826a6900000000000000000000000000000000000000000000000000000000815260040160405180910390fd5b805167ffffffffffffffff811115610d1757610d1661335d565b5b604051908082528060200260200182016040528015610d5057816020015b610d3d61303c565b815260200190600190039081610d355790505b5091505f5b8151811015610fd8576006828281518110610d7357610d7261401a565b5b602002602001015181548110610d8c57610d8b61401a565b5b905f5260205f2090600402016040518060800160405290815f82015f9054906101000a900473ffffffffffffffffffffffffffffffffffffffff1673ffffffffffffffffffffffffffffffffffffffff1673ffffffffffffffffffffffffffffffffffffffff168152602001600182018054610e0790613ac6565b80601f0160208091040260200160405190810160405280929190818152602001828054610e3390613ac6565b8015610e7e5780601f10610e5557610100808354040283529160200191610e7e565b820191905f5260205f20905b815481529060010190602001808311610e6157829003601f168201915b50505050508152602001600282018054610e9790613ac6565b80601f0160208091040260200160405190810160405280929190818152602001828054610ec390613ac6565b8015610f0e5780601f10610ee557610100808354040283529160200191610f0e565b820191905f5260205f20905b815481529060010190602001808311610ef157829003601f168201915b50505050508152602001600382018054610f2790613ac6565b80601f0160208091040260200160405190810160405280929190818152602001828054610f5390613ac6565b8015610f9e5780601f10610f7557610100808354040283529160200191610f9e565b820191905f5260205f20905b815481529060010190602001808311610f8157829003601f168201915b505050505081525050838281518110610fba57610fb961401a565b5b60200260200101819052508080610fd090613fd3565b915050610d55565b505090565b60085481565b5f80610fee836127e1565b90505f73ffffffffffffffffffffffffffffffffffffffff168173ffffffffffffffffffffffffffffffffffffffff160361105e576040517f08c379a000000000000000000000000000000000000000000000000000000000815260040161105590614091565b60405180910390fd5b80915050919050565b5f8073ffffffffffffffffffffffffffffffffffffffff168273ffffffffffffffffffffffffffffffffffffffff16036110d6576040517f08c379a00000000000000000000000000000000000000000000000000000000081526004016110cd9061411f565b60405180910390fd5b60035f8373ffffffffffffffffffffffffffffffffffffffff1673ffffffffffffffffffffffffffffffffffffffff1681526020019081526020015f20549050919050565b6006818154811061112a575f80fd5b905f5260205f2090600402015f91509050805f015f9054906101000a900473ffffffffffffffffffffffffffffffffffffffff169080600101805461116e90613ac6565b80601f016020809104026020016040519081016040528092919081815260200182805461119a90613ac6565b80156111e55780601f106111bc576101008083540402835291602001916111e5565b820191905f5260205f20905b8154815290600101906020018083116111c857829003601f168201915b5050505050908060020180546111fa90613ac6565b80601f016020809104026020016040519081016040528092919081815260200182805461122690613ac6565b80156112715780601f1061124857610100808354040283529160200191611271565b820191905f5260205f20905b81548152906001019060200180831161125457829003601f168201915b50505050509080600301805461128690613ac6565b80601f01602080910402602001604051908101604052809291908181526020018280546112b290613ac6565b80156112fd5780601f106112d4576101008083540402835291602001916112fd565b820191905f5260205f20905b8154815290600101906020018083116112e057829003601f168201915b5050505050905084565b61130f61303c565b5f82118015611322575060068054905082105b611361576040517f08c379a000000000000000000000000000000000000000000000000000000000815260040161135890614187565b60405180910390fd5b600682815481106113755761137461401a565b5b905f5260205f2090600402016040518060800160405290815f82015f9054906101000a900473ffffffffffffffffffffffffffffffffffffffff1673ffffffffffffffffffffffffffffffffffffffff1673ffffffffffffffffffffffffffffffffffffffff1681526020016001820180546113f090613ac6565b80601f016020809104026020016040519081016040528092919081815260200182805461141c90613ac6565b80156114675780601f1061143e57610100808354040283529160200191611467565b820191905f5260205f20905b81548152906001019060200180831161144a57829003601f168201915b5050505050815260200160028201805461148090613ac6565b80601f01602080910402602001604051908101604052809291908181526020018280546114ac90613ac6565b80156114f75780601f106114ce576101008083540402835291602001916114f7565b820191905f5260205f20905b8154815290600101906020018083116114da57829003601f168201915b5050505050815260200160038201805461151090613ac6565b80601f016020809104026020016040519081016040528092919081815260200182805461153c90613ac6565b80156115875780601f1061155e57610100808354040283529160200191611587565b820191905f5260205f20905b81548152906001019060200180831161156a57829003601f168201915b5050505050815250509050919050565b6060600180546115a690613ac6565b80601f01602080910402602001604051908101604052809291908181526020018280546115d290613ac6565b801561161d5780601f106115f45761010080835404028352916020019161161d565b820191905f5260205f20905b81548152906001019060200180831161160057829003601f168201915b5050505050905090565b6007602052815f5260405f208181548110611640575f80fd5b905f5260205f20015f91509150505481565b61166461165d611fa0565b838361281a565b5050565b611679611673611fa0565b8361205d565b6116b8576040517f08c379a00000000000000000000000000000000000000000000000000000000081526004016116af90613c82565b60405180910390fd5b6116c484848484612981565b50505050565b60605f73ffffffffffffffffffffffffffffffffffffffff166116ec836127e1565b73ffffffffffffffffffffffffffffffffffffffff1603611742576040517f08c379a000000000000000000000000000000000000000000000000000000000815260040161173990614215565b60405180910390fd5b5f600683815481106117575761175661401a565b5b905f5260205f2090600402016040518060800160405290815f82015f9054906101000a900473ffffffffffffffffffffffffffffffffffffffff1673ffffffffffffffffffffffffffffffffffffffff1673ffffffffffffffffffffffffffffffffffffffff1681526020016001820180546117d290613ac6565b80601f01602080910402602001604051908101604052809291908181526020018280546117fe90613ac6565b80156118495780601f1061182057610100808354040283529160200191611849565b820191905f5260205f20905b81548152906001019060200180831161182c57829003601f168201915b5050505050815260200160028201805461186290613ac6565b80601f016020809104026020016040519081016040528092919081815260200182805461188e90613ac6565b80156118d95780601f106118b0576101008083540402835291602001916118d9565b820191905f5260205f20905b8154815290600101906020018083116118bc57829003601f168201915b505050505081526020016003820180546118f290613ac6565b80601f016020809104026020016040519081016040528092919081815260200182805461191e90613ac6565b80156119695780601f1061194057610100808354040283529160200191611969565b820191905f5260205f20905b81548152906001019060200180831161194c57829003601f168201915b505050505081525050905061197d836129dd565b611989825f0151612b36565b60405160200161199a929190614417565b604051602081830303815290604052915050919050565b606060075f8373ffffffffffffffffffffffffffffffffffffffff1673ffffffffffffffffffffffffffffffffffffffff1681526020019081526020015f20805480602002602001604051908101604052809291908181526020018280548015611a3857602002820191905f5260205f20905b815481526020019060010190808311611a24575b50505050509050919050565b5f60055f8473ffffffffffffffffffffffffffffffffffffffff1673ffffffffffffffffffffffffffffffffffffffff1681526020019081526020015f205f8373ffffffffffffffffffffffffffffffffffffffff1673ffffffffffffffffffffffffffffffffffffffff1681526020019081526020015f205f9054906101000a900460ff16905092915050565b5f6001600680549050611ae59190614471565b905090565b60605f80600190505b600680549050811015611b96578373ffffffffffffffffffffffffffffffffffffffff1660068281548110611b2b57611b2a61401a565b5b905f5260205f2090600402015f015f9054906101000a900473ffffffffffffffffffffffffffffffffffffffff1673ffffffffffffffffffffffffffffffffffffffff1603611b83578180611b7f90613fd3565b9250505b8080611b8e90613fd3565b915050611af3565b508067ffffffffffffffff811115611bb157611bb061335d565b5b604051908082528060200260200182016040528015611bea57816020015b611bd761303c565b815260200190600190039081611bcf5790505b5091505f80600190505b600680549050811015611ee4578473ffffffffffffffffffffffffffffffffffffffff1660068281548110611c2c57611c2b61401a565b5b905f5260205f2090600402015f015f9054906101000a900473ffffffffffffffffffffffffffffffffffffffff1673ffffffffffffffffffffffffffffffffffffffff1603611ed15760068181548110611c8957611c8861401a565b5b905f5260205f2090600402016040518060800160405290815f82015f9054906101000a900473ffffffffffffffffffffffffffffffffffffffff1673ffffffffffffffffffffffffffffffffffffffff1673ffffffffffffffffffffffffffffffffffffffff168152602001600182018054611d0490613ac6565b80601f0160208091040260200160405190810160405280929190818152602001828054611d3090613ac6565b8015611d7b5780601f10611d5257610100808354040283529160200191611d7b565b820191905f5260205f20905b815481529060010190602001808311611d5e57829003601f168201915b50505050508152602001600282018054611d9490613ac6565b80601f0160208091040260200160405190810160405280929190818152602001828054611dc090613ac6565b8015611e0b5780601f10611de257610100808354040283529160200191611e0b565b820191905f5260205f20905b815481529060010190602001808311611dee57829003601f168201915b50505050508152602001600382018054611e2490613ac6565b80601f0160208091040260200160405190810160405280929190818152602001828054611e5090613ac6565b8015611e9b5780601f10611e7257610100808354040283529160200191611e9b565b820191905f5260205f20905b815481529060010190602001808311611e7e57829003601f168201915b505050505081525050848381518110611eb757611eb661401a565b5b60200260200101819052508180611ecd90613fd3565b9250505b8080611edc90613fd3565b915050611bf4565b505050919050565b5f7f01ffc9a7000000000000000000000000000000000000000000000000000000007bffffffffffffffffffffffffffffffffffffffffffffffffffffffff1916827bffffffffffffffffffffffffffffffffffffffffffffffffffffffff1916149050919050565b611f5e81612e4c565b611f9d576040517f08c379a0000000000000000000000000000000000000000000000000000000008152600401611f9490614091565b60405180910390fd5b50565b5f33905090565b8160045f8381526020019081526020015f205f6101000a81548173ffffffffffffffffffffffffffffffffffffffff021916908373ffffffffffffffffffffffffffffffffffffffff160217905550808273ffffffffffffffffffffffffffffffffffffffff1661201783610fe3565b73ffffffffffffffffffffffffffffffffffffffff167f8c5be1e5ebec7d5bd14f71427d1e84f3dd0314c0f7b2291e5b200ac8c7c3b92560405160405180910390a45050565b5f8061206883610fe3565b90508073ffffffffffffffffffffffffffffffffffffffff168473ffffffffffffffffffffffffffffffffffffffff1614806120aa57506120a98185611a44565b5b806120e857508373ffffffffffffffffffffffffffffffffffffffff166120d08461062c565b73ffffffffffffffffffffffffffffffffffffffff16145b91505092915050565b8273ffffffffffffffffffffffffffffffffffffffff1661211182610fe3565b73ffffffffffffffffffffffffffffffffffffffff1614612167576040517f08c379a000000000000000000000000000000000000000000000000000000000815260040161215e90614514565b60405180910390fd5b5f73ffffffffffffffffffffffffffffffffffffffff168273ffffffffffffffffffffffffffffffffffffffff16036121d5576040517f08c379a00000000000000000000000000000000000000000000000000000000081526004016121cc906145a2565b60405180910390fd5b6121e28383836001612e8c565b8273ffffffffffffffffffffffffffffffffffffffff1661220282610fe3565b73ffffffffffffffffffffffffffffffffffffffff1614612258576040517f08c379a000000000000000000000000000000000000000000000000000000000815260040161224f90614514565b60405180910390fd5b60045f8281526020019081526020015f205f6101000a81549073ffffffffffffffffffffffffffffffffffffffff0219169055600160035f8573ffffffffffffffffffffffffffffffffffffffff1673ffffffffffffffffffffffffffffffffffffffff1681526020019081526020015f205f8282540392505081905550600160035f8473ffffffffffffffffffffffffffffffffffffffff1673ffffffffffffffffffffffffffffffffffffffff1681526020019081526020015f205f82825401925050819055508160025f8381526020019081526020015f205f6101000a81548173ffffffffffffffffffffffffffffffffffffffff021916908373ffffffffffffffffffffffffffffffffffffffff160217905550808273ffffffffffffffffffffffffffffffffffffffff168473ffffffffffffffffffffffffffffffffffffffff167fddf252ad1be2c89b69c2b068fc378daa952ba7f163c4a11628f55a4df523b3ef60405160405180910390a46123d88383836001612e92565b505050565b60605f8290505f815167ffffffffffffffff8111156123ff576123fe61335d565b5b6040519080825280601f01601f1916602001820160405280156124315781602001600182028036833780820191505090505b5090505f5b82518110156125c357604160f81b8382815181106124575761245661401a565b5b602001015160f81c60f81b7effffffffffffffffffffffffffffffffffffffffffffffffffffffffffffff1916101580156124d55750605a60f81b8382815181106124a5576124a461401a565b5b602001015160f81c60f81b7effffffffffffffffffffffffffffffffffffffffffffffffffffffffffffff191611155b156125505760208382815181106124ef576124ee61401a565b5b602001015160f81c60f81b60f81c61250791906145cc565b60f81b82828151811061251d5761251c61401a565b5b60200101907effffffffffffffffffffffffffffffffffffffffffffffffffffffffffffff191690815f1a9053506125b0565b8281815181106125635761256261401a565b5b602001015160f81c60f81b8282815181106125815761258061401a565b5b60200101907effffffffffffffffffffffffffffffffffffffffffffffffffffffffffffff191690815f1a9053505b80806125bb90613fd3565b915050612436565b508092505050919050565b5f73ffffffffffffffffffffffffffffffffffffffff168273ffffffffffffffffffffffffffffffffffffffff160361263c576040517f08c379a00000000000000000000000000000000000000000000000000000000081526004016126339061464a565b60405180910390fd5b61264581612e4c565b15612685576040517f08c379a000000000000000000000000000000000000000000000000000000000815260040161267c906146b2565b60405180910390fd5b6126925f83836001612e8c565b61269b81612e4c565b156126db576040517f08c379a00000000000000000000000000000000000000000000000000000000081526004016126d2906146b2565b60405180910390fd5b600160035f8473ffffffffffffffffffffffffffffffffffffffff1673ffffffffffffffffffffffffffffffffffffffff1681526020019081526020015f205f82825401925050819055508160025f8381526020019081526020015f205f6101000a81548173ffffffffffffffffffffffffffffffffffffffff021916908373ffffffffffffffffffffffffffffffffffffffff160217905550808273ffffffffffffffffffffffffffffffffffffffff165f73ffffffffffffffffffffffffffffffffffffffff167fddf252ad1be2c89b69c2b068fc378daa952ba7f163c4a11628f55a4df523b3ef60405160405180910390a46127dd5f83836001612e92565b5050565b5f60025f8381526020019081526020015f205f9054906101000a900473ffffffffffffffffffffffffffffffffffffffff169050919050565b8173ffffffffffffffffffffffffffffffffffffffff168373ffffffffffffffffffffffffffffffffffffffff1603612888576040517f08c379a000000000000000000000000000000000000000000000000000000000815260040161287f9061471a565b60405180910390fd5b8060055f8573ffffffffffffffffffffffffffffffffffffffff1673ffffffffffffffffffffffffffffffffffffffff1681526020019081526020015f205f8473ffffffffffffffffffffffffffffffffffffffff1673ffffffffffffffffffffffffffffffffffffffff1681526020019081526020015f205f6101000a81548160ff0219169083151502179055508173ffffffffffffffffffffffffffffffffffffffff168373ffffffffffffffffffffffffffffffffffffffff167f17307eab39ab6107e8899845ad3d59bd9653f200f220920489ca2b5937696c31836040516129749190613124565b60405180910390a3505050565b61298c8484846120f1565b61299884848484612e98565b6129d7576040517f08c379a00000000000000000000000000000000000000000000000000000000081526004016129ce906147a8565b60405180910390fd5b50505050565b60605f8203612a23576040518060400160405280600181526020017f30000000000000000000000000000000000000000000000000000000000000008152509050612b31565b5f8290505f5b5f8214612a52578080612a3b90613fd3565b915050600a82612a4b91906147f3565b9150612a29565b5f8167ffffffffffffffff811115612a6d57612a6c61335d565b5b6040519080825280601f01601f191660200182016040528015612a9f5781602001600182028036833780820191505090505b5090505b5f8514612b2a57600182612ab79190614471565b9150600a85612ac69190614823565b6030612ad29190614853565b60f81b818381518110612ae857612ae761401a565b5b60200101907effffffffffffffffffffffffffffffffffffffffffffffffffffffffffffff191690815f1a905350600a85612b2391906147f3565b9450612aa3565b8093505050505b919050565b60605f82604051602001612b4a91906148cb565b60405160208183030381529060405290505f6040518060400160405280601081526020017f303132333435363738396162636465660000000000000000000000000000000081525090505f60028351612ba391906148e5565b6002612baf9190614853565b67ffffffffffffffff811115612bc857612bc761335d565b5b6040519080825280601f01601f191660200182016040528015612bfa5781602001600182028036833780820191505090505b5090507f3000000000000000000000000000000000000000000000000000000000000000815f81518110612c3157612c3061401a565b5b60200101907effffffffffffffffffffffffffffffffffffffffffffffffffffffffffffff191690815f1a9053507f780000000000000000000000000000000000000000000000000000000000000081600181518110612c9457612c9361401a565b5b60200101907effffffffffffffffffffffffffffffffffffffffffffffffffffffffffffff191690815f1a9053505f5b8351811015612e4057826004858381518110612ce357612ce261401a565b5b602001015160f81c60f81b7effffffffffffffffffffffffffffffffffffffffffffffffffffffffffffff1916901c60f81c60ff1681518110612d2957612d2861401a565b5b602001015160f81c60f81b82600283612d4291906148e5565b6002612d4e9190614853565b81518110612d5f57612d5e61401a565b5b60200101907effffffffffffffffffffffffffffffffffffffffffffffffffffffffffffff191690815f1a90535082600f60f81b858381518110612da657612da561401a565b5b602001015160f81c60f81b1660f81c60ff1681518110612dc957612dc861401a565b5b602001015160f81c60f81b82600283612de291906148e5565b6003612dee9190614853565b81518110612dff57612dfe61401a565b5b60200101907effffffffffffffffffffffffffffffffffffffffffffffffffffffffffffff191690815f1a9053508080612e3890613fd3565b915050612cc4565b50809350505050919050565b5f8073ffffffffffffffffffffffffffffffffffffffff16612e6d836127e1565b73ffffffffffffffffffffffffffffffffffffffff1614159050919050565b50505050565b50505050565b5f612eb88473ffffffffffffffffffffffffffffffffffffffff1661301a565b1561300d578373ffffffffffffffffffffffffffffffffffffffff1663150b7a02612ee1611fa0565b8786866040518563ffffffff1660e01b8152600401612f039493929190614978565b6020604051808303815f875af1925050508015612f3e57506040513d601f19601f82011682018060405250810190612f3b91906149d6565b60015b612fbd573d805f8114612f6c576040519150601f19603f3d011682016040523d82523d5f602084013e612f71565b606091505b505f815103612fb5576040517f08c379a0000000000000000000000000000000000000000000000000000000008152600401612fac906147a8565b60405180910390fd5b805181602001fd5b63150b7a0260e01b7bffffffffffffffffffffffffffffffffffffffffffffffffffffffff1916817bffffffffffffffffffffffffffffffffffffffffffffffffffffffff191614915050613012565b600190505b949350505050565b5f808273ffffffffffffffffffffffffffffffffffffffff163b119050919050565b60405180608001604052805f73ffffffffffffffffffffffffffffffffffffffff1681526020016060815260200160608152602001606081525090565b5f604051905090565b5f80fd5b5f80fd5b5f7fffffffff0000000000000000000000000000000000000000000000000000000082169050919050565b6130be8161308a565b81146130c8575f80fd5b50565b5f813590506130d9816130b5565b92915050565b5f602082840312156130f4576130f3613082565b5b5f613101848285016130cb565b91505092915050565b5f8115159050919050565b61311e8161310a565b82525050565b5f6020820190506131375f830184613115565b92915050565b5f81519050919050565b5f82825260208201905092915050565b5f5b83811015613174578082015181840152602081019050613159565b5f8484015250505050565b5f601f19601f8301169050919050565b5f6131998261313d565b6131a38185613147565b93506131b3818560208601613157565b6131bc8161317f565b840191505092915050565b5f6020820190508181035f8301526131df818461318f565b905092915050565b5f819050919050565b6131f9816131e7565b8114613203575f80fd5b50565b5f81359050613214816131f0565b92915050565b5f6020828403121561322f5761322e613082565b5b5f61323c84828501613206565b91505092915050565b5f73ffffffffffffffffffffffffffffffffffffffff82169050919050565b5f61326e82613245565b9050919050565b61327e81613264565b82525050565b5f6020820190506132975f830184613275565b92915050565b6132a681613264565b81146132b0575f80fd5b50565b5f813590506132c18161329d565b92915050565b5f80604083850312156132dd576132dc613082565b5b5f6132ea858286016132b3565b92505060206132fb85828601613206565b9150509250929050565b5f805f6060848603121561331c5761331b613082565b5b5f613329868287016132b3565b935050602061333a868287016132b3565b925050604061334b86828701613206565b9150509250925092565b5f80fd5b5f80fd5b7f4e487b71000000000000000000000000000000000000000000000000000000005f52604160045260245ffd5b6133938261317f565b810181811067ffffffffffffffff821117156133b2576133b161335d565b5b80604052505050565b5f6133c4613079565b90506133d0828261338a565b919050565b5f67ffffffffffffffff8211156133ef576133ee61335d565b5b6133f88261317f565b9050602081019050919050565b828183375f83830152505050565b5f613425613420846133d5565b6133bb565b90508281526020810184848401111561344157613440613359565b5b61344c848285613405565b509392505050565b5f82601f83011261346857613467613355565b5b8135613478848260208601613413565b91505092915050565b5f805f6060848603121561349857613497613082565b5b5f84013567ffffffffffffffff8111156134b5576134b4613086565b5b6134c186828701613454565b935050602084013567ffffffffffffffff8111156134e2576134e1613086565b5b6134ee86828701613454565b925050604084013567ffffffffffffffff81111561350f5761350e613086565b5b61351b86828701613454565b9150509250925092565b5f81519050919050565b5f82825260208201905092915050565b5f819050602082019050919050565b61355781613264565b82525050565b5f82825260208201905092915050565b5f6135778261313d565b613581818561355d565b9350613591818560208601613157565b61359a8161317f565b840191505092915050565b5f608083015f8301516135ba5f86018261354e565b50602083015184820360208601526135d2828261356d565b915050604083015184820360408601526135ec828261356d565b91505060608301518482036060860152613606828261356d565b9150508091505092915050565b5f61361e83836135a5565b905092915050565b5f602082019050919050565b5f61363c82613525565b613646818561352f565b9350836020820285016136588561353f565b805f5b8581101561369357848403895281516136748582613613565b945061367f83613626565b925060208a0199505060018101905061365b565b50829750879550505050505092915050565b5f6020820190508181035f8301526136bd8184613632565b905092915050565b6136ce816131e7565b82525050565b5f6020820190506136e75f8301846136c5565b92915050565b5f6020828403121561370257613701613082565b5b5f61370f848285016132b3565b91505092915050565b5f60808201905061372b5f830187613275565b818103602083015261373d818661318f565b90508181036040830152613751818561318f565b90508181036060830152613765818461318f565b905095945050505050565b5f608083015f8301516137855f86018261354e565b506020830151848203602086015261379d828261356d565b915050604083015184820360408601526137b7828261356d565b915050606083015184820360608601526137d1828261356d565b9150508091505092915050565b5f6020820190508181035f8301526137f68184613770565b905092915050565b6138078161310a565b8114613811575f80fd5b50565b5f81359050613822816137fe565b92915050565b5f806040838503121561383e5761383d613082565b5b5f61384b858286016132b3565b925050602061385c85828601613814565b9150509250929050565b5f67ffffffffffffffff8211156138805761387f61335d565b5b6138898261317f565b9050602081019050919050565b5f6138a86138a384613866565b6133bb565b9050828152602081018484840111156138c4576138c3613359565b5b6138cf848285613405565b509392505050565b5f82601f8301126138eb576138ea613355565b5b81356138fb848260208601613896565b91505092915050565b5f805f806080858703121561391c5761391b613082565b5b5f613929878288016132b3565b945050602061393a878288016132b3565b935050604061394b87828801613206565b925050606085013567ffffffffffffffff81111561396c5761396b613086565b5b613978878288016138d7565b91505092959194509250565b5f81519050919050565b5f82825260208201905092915050565b5f819050602082019050919050565b6139b6816131e7565b82525050565b5f6139c783836139ad565b60208301905092915050565b5f602082019050919050565b5f6139e982613984565b6139f3818561398e565b93506139fe8361399e565b805f5b83811015613a2e578151613a1588826139bc565b9750613a20836139d3565b925050600181019050613a01565b5085935050505092915050565b5f6020820190508181035f830152613a5381846139df565b905092915050565b5f8060408385031215613a7157613a70613082565b5b5f613a7e858286016132b3565b9250506020613a8f858286016132b3565b9150509250929050565b7f4e487b71000000000000000000000000000000000000000000000000000000005f52602260045260245ffd5b5f6002820490506001821680613add57607f821691505b602082108103613af057613aef613a99565b5b50919050565b7f4552433732313a20617070726f76616c20746f2063757272656e74206f776e655f8201527f7200000000000000000000000000000000000000000000000000000000000000602082015250565b5f613b50602183613147565b9150613b5b82613af6565b604082019050919050565b5f6020820190508181035f830152613b7d81613b44565b9050919050565b7f4552433732313a20617070726f76652063616c6c6572206973206e6f7420746f5f8201527f6b656e206f776e6572206f7220617070726f76656420666f7220616c6c000000602082015250565b5f613bde603d83613147565b9150613be982613b84565b604082019050919050565b5f6020820190508181035f830152613c0b81613bd2565b9050919050565b7f4552433732313a2063616c6c6572206973206e6f7420746f6b656e206f776e655f8201527f72206f7220617070726f76656400000000000000000000000000000000000000602082015250565b5f613c6c602d83613147565b9150613c7782613c12565b604082019050919050565b5f6020820190508181035f830152613c9981613c60565b9050919050565b5f81905092915050565b5f613cb48261313d565b613cbe8185613ca0565b9350613cce818560208601613157565b80840191505092915050565b5f613ce58284613caa565b915081905092915050565b5f819050815f5260205f209050919050565b5f6020601f8301049050919050565b5f82821b905092915050565b5f60088302613d4c7fffffffffffffffffffffffffffffffffffffffffffffffffffffffffffffffff82613d11565b613d568683613d11565b95508019841693508086168417925050509392505050565b5f819050919050565b5f613d91613d8c613d87846131e7565b613d6e565b6131e7565b9050919050565b5f819050919050565b613daa83613d77565b613dbe613db682613d98565b848454613d1d565b825550505050565b5f90565b613dd2613dc6565b613ddd818484613da1565b505050565b5b81811015613e0057613df55f82613dca565b600181019050613de3565b5050565b601f821115613e4557613e1681613cf0565b613e1f84613d02565b81016020851015613e2e578190505b613e42613e3a85613d02565b830182613de2565b50505b505050565b5f82821c905092915050565b5f613e655f1984600802613e4a565b1980831691505092915050565b5f613e7d8383613e56565b9150826002028217905092915050565b613e968261313d565b67ffffffffffffffff811115613eaf57613eae61335d565b5b613eb98254613ac6565b613ec4828285613e04565b5f60209050601f831160018114613ef5575f8415613ee3578287015190505b613eed8582613e72565b865550613f54565b601f198416613f0386613cf0565b5f5b82811015613f2a57848901518255600182019150602085019450602081019050613f05565b86831015613f475784890151613f43601f891682613e56565b8355505b6001600288020188555050505b505050505050565b5f6060820190508181035f830152613f74818661318f565b90508181036020830152613f88818561318f565b90508181036040830152613f9c818461318f565b9050949350505050565b7f4e487b71000000000000000000000000000000000000000000000000000000005f52601160045260245ffd5b5f613fdd826131e7565b91507fffffffffffffffffffffffffffffffffffffffffffffffffffffffffffffffff820361400f5761400e613fa6565b5b600182019050919050565b7f4e487b71000000000000000000000000000000000000000000000000000000005f52603260045260245ffd5b7f4552433732313a20696e76616c696420746f6b656e20494400000000000000005f82015250565b5f61407b601883613147565b915061408682614047565b602082019050919050565b5f6020820190508181035f8301526140a88161406f565b9050919050565b7f4552433732313a2061646472657373207a65726f206973206e6f7420612076615f8201527f6c6964206f776e65720000000000000000000000000000000000000000000000602082015250565b5f614109602983613147565b9150614114826140af565b604082019050919050565b5f6020820190508181035f830152614136816140fd565b9050919050565b7f496e76616c6964206861696b75204944000000000000000000000000000000005f82015250565b5f614171601083613147565b915061417c8261413d565b602082019050919050565b5f6020820190508181035f83015261419e81614165565b9050919050565b7f4552433732313a2055524920717565727920666f72206e6f6e6578697374656e5f8201527f7420746f6b656e00000000000000000000000000000000000000000000000000602082015250565b5f6141ff602783613147565b915061420a826141a5565b604082019050919050565b5f6020820190508181035f83015261422c816141f3565b9050919050565b7f7b226e616d65223a20224861696b7520230000000000000000000000000000005f82015250565b5f614267601183613ca0565b915061427282614233565b601182019050919050565b7f222c20226465736372697074696f6e223a20224120756e69717565206861696b5f8201527f7520706f656d222c202261747472696275746573223a205b0000000000000000602082015250565b5f6142d7603883613ca0565b91506142e28261427d565b603882019050919050565b7f7b2274726169745f74797065223a2022417574686f72222c202276616c7565225f8201527f3a20220000000000000000000000000000000000000000000000000000000000602082015250565b5f614347602383613ca0565b9150614352826142ed565b602382019050919050565b7f227d2c00000000000000000000000000000000000000000000000000000000005f82015250565b5f614391600383613ca0565b915061439c8261435d565b600382019050919050565b7f7b2274726169745f74797065223a20224c696e6520436f756e74222c202276615f8201527f6c7565223a202233227d5d7d0000000000000000000000000000000000000000602082015250565b5f614401602c83613ca0565b915061440c826143a7565b602c82019050919050565b5f6144218261425b565b915061442d8285613caa565b9150614438826142cb565b91506144438261433b565b915061444f8284613caa565b915061445a82614385565b9150614465826143f5565b91508190509392505050565b5f61447b826131e7565b9150614486836131e7565b925082820390508181111561449e5761449d613fa6565b5b92915050565b7f4552433732313a207472616e736665722066726f6d20696e636f7272656374205f8201527f6f776e6572000000000000000000000000000000000000000000000000000000602082015250565b5f6144fe602583613147565b9150614509826144a4565b604082019050919050565b5f6020820190508181035f83015261452b816144f2565b9050919050565b7f4552433732313a207472616e7366657220746f20746865207a65726f206164645f8201527f7265737300000000000000000000000000000000000000000000000000000000602082015250565b5f61458c602483613147565b915061459782614532565b604082019050919050565b5f6020820190508181035f8301526145b981614580565b9050919050565b5f60ff82169050919050565b5f6145d6826145c0565b91506145e1836145c0565b9250828201905060ff8111156145fa576145f9613fa6565b5b92915050565b7f4552433732313a206d696e7420746f20746865207a65726f20616464726573735f82015250565b5f614634602083613147565b915061463f82614600565b602082019050919050565b5f6020820190508181035f83015261466181614628565b9050919050565b7f4552433732313a20746f6b656e20616c7265616479206d696e746564000000005f82015250565b5f61469c601c83613147565b91506146a782614668565b602082019050919050565b5f6020820190508181035f8301526146c981614690565b9050919050565b7f4552433732313a20617070726f766520746f2063616c6c6572000000000000005f82015250565b5f614704601983613147565b915061470f826146d0565b602082019050919050565b5f6020820190508181035f830152614731816146f8565b9050919050565b7f4552433732313a207472616e7366657220746f206e6f6e2045524337323152655f8201527f63656976657220696d706c656d656e7465720000000000000000000000000000602082015250565b5f614792603283613147565b915061479d82614738565b604082019050919050565b5f6020820190508181035f8301526147bf81614786565b9050919050565b7f4e487b71000000000000000000000000000000000000000000000000000000005f52601260045260245ffd5b5f6147fd826131e7565b9150614808836131e7565b925082614818576148176147c6565b5b828204905092915050565b5f61482d826131e7565b9150614838836131e7565b925082614848576148476147c6565b5b828206905092915050565b5f61485d826131e7565b9150614868836131e7565b92508282019050808211156148805761487f613fa6565b5b92915050565b5f8160601b9050919050565b5f61489c82614886565b9050919050565b5f6148ad82614892565b9050919050565b6148c56148c082613264565b6148a3565b82525050565b5f6148d682846148b4565b60148201915081905092915050565b5f6148ef826131e7565b91506148fa836131e7565b9250828202614908816131e7565b9150828204841483151761491f5761491e613fa6565b5b5092915050565b5f81519050919050565b5f82825260208201905092915050565b5f61494a82614926565b6149548185614930565b9350614964818560208601613157565b61496d8161317f565b840191505092915050565b5f60808201905061498b5f830187613275565b6149986020830186613275565b6149a560408301856136c5565b81810360608301526149b78184614940565b905095945050505050565b5f815190506149d0816130b5565b92915050565b5f602082840312156149eb576149ea613082565b5b5f6149f8848285016149c2565b9150509291505056fea264697066735822122024c8234256d011e82524842dcc3d5cf0d05457a9038443c92bd01271c38472dc64736f6c63430008140033","linkReferences":{}},"methodIdentifiers":{"approve(address,uint256)":"095ea7b3","balanceOf(address)":"70a08231","counter()":"61bc221a","getApproved(uint256)":"081812fc","getHaiku(uint256)":"8e667f57","getHaikusByAuthor(address)":"fb693469","getMySharedHaikus()":"49af5bfe","getSharedHaikuIds(address)":"d30838e2","getTotalHaikus()":"ed1292e0","haikus(uint256)":"7cb82b2a","isApprovedForAll(address,address)":"e985e9c5","mintHaiku(string,string,string)":"350fe165","name()":"06fdde03","ownerOf(uint256)":"6352211e","safeTransferFrom(address,address,uint256)":"42842e0e","safeTransferFrom(address,address,uint256,bytes)":"b88d4fde","setApprovalForAll(address,bool)":"a22cb465","shareHaiku(address,uint256)":"0884d540","sharedHaikus(address,uint256)":"97afe82d","supportsInterface(bytes4)":"01ffc9a7","symbol()":"95d89b41","tokenURI(uint256)":"c87b56dd","transferFrom(address,address,uint256)":"23b872dd"},"id":42}