{"abi":[{"type":"constructor","inputs":[],"stateMutability":"nonpayable"},{"type":"function","name":"allowance","inputs":[{"name":"owner","type":"address","internalType":"address"},{"name":"spender","type":"address","internalType":"address"}],"outputs":[{"name":"","type":"uint256","internalType":"uint256"}],"stateMutability":"view"},{"type":"function","name":"approve","inputs":[{"name":"spender","type":"address","internalType":"address"},{"name":"amount","type":"uint256","internalType":"uint256"}],"outputs":[{"name":"","type":"bool","internalType":"bool"}],"stateMutability":"nonpayable"},{"type":"function","name":"balanceOf","inputs":[{"name":"account","type":"address","internalType":"address"}],"outputs":[{"name":"","type":"uint256","internalType":"uint256"}],"stateMutability":"view"},{"type":"function","name":"claim","inputs":[],"outputs":[],"stateMutability":"nonpayable"},{"type":"function","name":"createIssue","inputs":[{"name":"_description","type":"string","internalType":"string"},{"name":"_quorum","type":"uint256","internalType":"uint256"}],"outputs":[{"name":"issueId","type":"uint256","internalType":"uint256"}],"stateMutability":"nonpayable"},{"type":"function","name":"decimals","inputs":[],"outputs":[{"name":"","type":"uint8","internalType":"uint8"}],"stateMutability":"view"},{"type":"function","name":"decreaseAllowance","inputs":[{"name":"spender","type":"address","internalType":"address"},{"name":"subtractedValue","type":"uint256","internalType":"uint256"}],"outputs":[{"name":"","type":"bool","internalType":"bool"}],"stateMutability":"nonpayable"},{"type":"function","name":"getIssue","inputs":[{"name":"_id","type":"uint256","internalType":"uint256"}],"outputs":[{"name":"issueView","type":"tuple","internalType":"struct WeightedVoting.IssueView","components":[{"name":"voters","type":"address[]","internalType":"address[]"},{"name":"issueDesc","type":"string","internalType":"string"},{"name":"votesFor","type":"uint256","internalType":"uint256"},{"name":"votesAgainst","type":"uint256","internalType":"uint256"},{"name":"votesAbstain","type":"uint256","internalType":"uint256"},{"name":"totalVotes","type":"uint256","internalType":"uint256"},{"name":"quorum","type":"uint256","internalType":"uint256"},{"name":"passed","type":"bool","internalType":"bool"},{"name":"closed","type":"bool","internalType":"bool"}]}],"stateMutability":"view"},{"type":"function","name":"getIssueCount","inputs":[],"outputs":[{"name":"","type":"uint256","internalType":"uint256"}],"stateMutability":"view"},{"type":"function","name":"hasClaimedTokens","inputs":[{"name":"_address","type":"address","internalType":"address"}],"outputs":[{"name":"","type":"bool","internalType":"bool"}],"stateMutability":"view"},{"type":"function","name":"increaseAllowance","inputs":[{"name":"spender","type":"address","internalType":"address"},{"name":"addedValue","type":"uint256","internalType":"uint256"}],"outputs":[{"name":"","type":"bool","internalType":"bool"}],"stateMutability":"nonpayable"},{"type":"function","name":"maxSupply","inputs":[],"outputs":[{"name":"","type":"uint256","internalType":"uint256"}],"stateMutability":"view"},{"type":"function","name":"name","inputs":[],"outputs":[{"name":"","type":"string","internalType":"string"}],"stateMutability":"view"},{"type":"function","name":"remainingTokens","inputs":[],"outputs":[{"name":"","type":"uint256","internalType":"uint256"}],"stateMutability":"view"},{"type":"function","name":"symbol","inputs":[],"outputs":[{"name":"","type":"string","internalType":"string"}],"stateMutability":"view"},{"type":"function","name":"totalSupply","inputs":[],"outputs":[{"name":"","type":"uint256","internalType":"uint256"}],"stateMutability":"view"},{"type":"function","name":"transfer","inputs":[{"name":"to","type":"address","internalType":"address"},{"name":"amount","type":"uint256","internalType":"uint256"}],"outputs":[{"name":"","type":"bool","internalType":"bool"}],"stateMutability":"nonpayable"},{"type":"function","name":"transferFrom","inputs":[{"name":"from","type":"address","internalType":"address"},{"name":"to","type":"address","internalType":"address"},{"name":"amount","type":"uint256","internalType":"uint256"}],"outputs":[{"name":"","type":"bool","internalType":"bool"}],"stateMutability":"nonpayable"},{"type":"function","name":"vote","inputs":[{"name":"_issueId","type":"uint256","internalType":"uint256"},{"name":"_vote","type":"uint8","internalType":"enum WeightedVoting.Vote"}],"outputs":[],"stateMutability":"nonpayable"},{"type":"event","name":"Approval","inputs":[{"name":"owner","type":"address","indexed":true,"internalType":"address"},{"name":"spender","type":"address","indexed":true,"internalType":"address"},{"name":"value","type":"uint256","indexed":false,"internalType":"uint256"}],"anonymous":false},{"type":"event","name":"IssueClaimed","inputs":[{"name":"claimer","type":"address","indexed":true,"internalType":"address"},{"name":"amount","type":"uint256","indexed":false,"internalType":"uint256"}],"anonymous":false},{"type":"event","name":"IssueCreated","inputs":[{"name":"issueId","type":"uint256","indexed":true,"internalType":"uint256"},{"name":"description","type":"string","indexed":false,"internalType":"string"},{"name":"quorum","type":"uint256","indexed":false,"internalType":"uint256"}],"anonymous":false},{"type":"event","name":"IssueResolved","inputs":[{"name":"issueId","type":"uint256","indexed":true,"internalType":"uint256"},{"name":"passed","type":"bool","indexed":false,"internalType":"bool"}],"anonymous":false},{"type":"event","name":"Transfer","inputs":[{"name":"from","type":"address","indexed":true,"internalType":"address"},{"name":"to","type":"address","indexed":true,"internalType":"address"},{"name":"value","type":"uint256","indexed":false,"internalType":"uint256"}],"anonymous":false},{"type":"event","name":"VoteCast","inputs":[{"name":"issueId","type":"uint256","indexed":true,"internalType":"uint256"},{"name":"voter","type":"address","indexed":true,"internalType":"address"},{"name":"vote","type":"uint8","indexed":false,"internalType":"enum WeightedVoting.Vote"},{"name":"weight","type":"uint256","indexed":false,"internalType":"uint256"}],"anonymous":false},{"type":"error","name":"AllTokensClaimed","inputs":[]},{"type":"error","name":"AlreadyVoted","inputs":[]},{"type":"error","name":"NoTokensHeld","inputs":[]},{"type":"error","name":"QuorumTooHigh","inputs":[{"name":"quorum","type":"uint256","internalType":"uint256"}]},{"type":"error","name":"TokensClaimed","inputs":[]},{"type":"error","name":"VotingClosed","inputs":[]}],"bytecode":{"object":"0x608060405234801562000010575f80fd5b506040518060400160405280600e81526020017f5765696768746564566f74696e670000000000000000000000000000000000008152506040518060400160405280600281526020017f575600000000000000000000000000000000000000000000000000000000000081525081600390816200008e919062000329565b508060049081620000a0919062000329565b505050600660018160018154018082558091505003905f5260205f209050506200040d565b5f81519050919050565b7f4e487b71000000000000000000000000000000000000000000000000000000005f52604160045260245ffd5b7f4e487b71000000000000000000000000000000000000000000000000000000005f52602260045260245ffd5b5f60028204905060018216806200014157607f821691505b602082108103620001575762000156620000fc565b5b50919050565b5f819050815f5260205f209050919050565b5f6020601f8301049050919050565b5f82821b905092915050565b5f60088302620001bb7fffffffffffffffffffffffffffffffffffffffffffffffffffffffffffffffff826200017e565b620001c786836200017e565b95508019841693508086168417925050509392505050565b5f819050919050565b5f819050919050565b5f620002116200020b6200020584620001df565b620001e8565b620001df565b9050919050565b5f819050919050565b6200022c83620001f1565b620002446200023b8262000218565b8484546200018a565b825550505050565b5f90565b6200025a6200024c565b6200026781848462000221565b505050565b5b818110156200028e57620002825f8262000250565b6001810190506200026d565b5050565b601f821115620002dd57620002a7816200015d565b620002b2846200016f565b81016020851015620002c2578190505b620002da620002d1856200016f565b8301826200026c565b50505b505050565b5f82821c905092915050565b5f620002ff5f1984600802620002e2565b1980831691505092915050565b5f620003198383620002ee565b9150826002028217905092915050565b6200033482620000c5565b67ffffffffffffffff81111562000350576200034f620000cf565b5b6200035c825462000129565b6200036982828562000292565b5f60209050601f8311600181146200039f575f84156200038a578287015190505b6200039685826200030c565b86555062000405565b601f198416620003af866200015d565b5f5b82811015620003d857848901518255600182019150602085019450602081019050620003b1565b86831015620003f85784890151620003f4601f891682620002ee565b8355505b6001600288020188555050505b505050505050565b612a90806200041b5f395ff3fe608060405234801561000f575f80fd5b506004361061011f575f3560e01c80638615d855116100ab578063a9059cbb1161006f578063a9059cbb1461032f578063bf5839031461035f578063d5abeb011461037d578063dd62ed3e1461039b578063ed613ac1146103cb5761011f565b80638615d85514610265578063943e82161461029557806395d89b41146102b1578063976b3113146102cf578063a457c2d7146102ff5761011f565b806323b872dd116100f257806323b872dd146101ad578063313ce567146101dd57806339509351146101fb5780634e71d92d1461022b57806370a08231146102355761011f565b806306fdde0314610123578063095ea7b3146101415780630d4c47081461017157806318160ddd1461018f575b5f80fd5b61012b6103fb565b6040516101389190611950565b60405180910390f35b61015b60048036038101906101569190611a0e565b61048b565b6040516101689190611a66565b60405180910390f35b6101796104ad565b6040516101869190611a8e565b60405180910390f35b6101976104b9565b6040516101a49190611a8e565b60405180910390f35b6101c760048036038101906101c29190611aa7565b6104c2565b6040516101d49190611a66565b60405180910390f35b6101e56104f0565b6040516101f29190611b12565b60405180910390f35b61021560048036038101906102109190611a0e565b6104f8565b6040516102229190611a66565b60405180910390f35b61023361052e565b005b61024f600480360381019061024a9190611b2b565b6106f3565b60405161025c9190611a8e565b60405180910390f35b61027f600480360381019061027a9190611c82565b610738565b60405161028c9190611a8e565b60405180910390f35b6102af60048036038101906102aa9190611cff565b6108d0565b005b6102b9610c65565b6040516102c69190611950565b60405180910390f35b6102e960048036038101906102e49190611d3d565b610cf5565b6040516102f69190611f4e565b60405180910390f35b61031960048036038101906103149190611a0e565b610f95565b6040516103269190611a66565b60405180910390f35b61034960048036038101906103449190611a0e565b61100a565b6040516103569190611a66565b60405180910390f35b61036761102c565b6040516103749190611a8e565b60405180910390f35b610385611048565b6040516103929190611a8e565b60405180910390f35b6103b560048036038101906103b09190611f6e565b61104f565b6040516103c29190611a8e565b60405180910390f35b6103e560048036038101906103e09190611b2b565b6110d1565b6040516103f29190611a66565b60405180910390f35b60606003805461040a90611fd9565b80601f016020809104026020016040519081016040528092919081815260200182805461043690611fd9565b80156104815780601f1061045857610100808354040283529160200191610481565b820191905f5260205f20905b81548152906001019060200180831161046457829003601f168201915b5050505050905090565b5f80610495611123565b90506104a281858561112a565b600191505092915050565b5f600680549050905090565b5f600254905090565b5f806104cc611123565b90506104d98582856112ed565b6104e4858585611378565b60019150509392505050565b5f6012905090565b5f80610502611123565b9050610523818585610514858961104f565b61051e9190612036565b61112a565b600191505092915050565b620f424061053a6104b9565b10610571576040517fcbe2483100000000000000000000000000000000000000000000000000000000815260040160405180910390fd5b60055f3373ffffffffffffffffffffffffffffffffffffffff1673ffffffffffffffffffffffffffffffffffffffff1681526020019081526020015f205f9054906101000a900460ff16156105f2576040517f0b1327a600000000000000000000000000000000000000000000000000000000815260040160405180910390fd5b620f424060646106006104b9565b61060a9190612036565b1115610642576040517fcbe2483100000000000000000000000000000000000000000000000000000000815260040160405180910390fd5b600160055f3373ffffffffffffffffffffffffffffffffffffffff1673ffffffffffffffffffffffffffffffffffffffff1681526020019081526020015f205f6101000a81548160ff0219169083151502179055506106a23360646115e4565b3373ffffffffffffffffffffffffffffffffffffffff167f5c52f0353e646b56ba9b98e6b35ab04af5dd4cbc32747dcddde8c881457d3b4460646040516106e991906120ab565b60405180910390a2565b5f805f8373ffffffffffffffffffffffffffffffffffffffff1673ffffffffffffffffffffffffffffffffffffffff1681526020019081526020015f20549050919050565b5f80610743336106f3565b0361077a576040517f8439960d00000000000000000000000000000000000000000000000000000000815260040160405180910390fd5b6107826104b9565b8211156107c657816040517f589a49520000000000000000000000000000000000000000000000000000000081526004016107bd9190611a8e565b60405180910390fd5b600660018160018154018082558091505003905f5260205f2090505060016006805490506107f491906120c4565b90505f6006828154811061080b5761080a6120f7565b5b905f5260205f20906009020190508381600201908161082a91906122b8565b508281600701819055505f81600301819055505f81600401819055505f81600501819055505f81600601819055505f816008015f6101000a81548160ff0219169083151502179055505f8160080160016101000a81548160ff021916908315150217905550817f808aeb173d2b4af9e10987d8d62a1050d6fad713832d34a06f9a0eccb86306e885856040516108c1929190612387565b60405180910390a25092915050565b6006805490508210610917576040517f08c379a000000000000000000000000000000000000000000000000000000000815260040161090e906123ff565b60405180910390fd5b5f8211610959576040517f08c379a000000000000000000000000000000000000000000000000000000000815260040161095090612467565b60405180910390fd5b5f6006838154811061096e5761096d6120f7565b5b905f5260205f20906009020190508060080160019054906101000a900460ff16156109c5576040517f66b6cb4a00000000000000000000000000000000000000000000000000000000815260040160405180910390fd5b6109da33825f0161173290919063ffffffff16565b15610a11576040517f7c9a1cf900000000000000000000000000000000000000000000000000000000815260040160405180910390fd5b5f610a1b336106f3565b90505f8111610a5f576040517f08c379a0000000000000000000000000000000000000000000000000000000008152600401610a56906124cf565b60405180910390fd5b610a7433835f0161175f90919063ffffffff16565b5060016002811115610a8957610a886124ed565b5b836002811115610a9c57610a9b6124ed565b5b03610ac05780826003015f828254610ab49190612036565b92505081905550610b52565b5f6002811115610ad357610ad26124ed565b5b836002811115610ae657610ae56124ed565b5b03610b0a5780826004015f828254610afe9190612036565b92505081905550610b51565b600280811115610b1d57610b1c6124ed565b5b836002811115610b3057610b2f6124ed565b5b03610b505780826005015f828254610b489190612036565b925050819055505b5b5b80826006015f828254610b659190612036565b925050819055503373ffffffffffffffffffffffffffffffffffffffff16847fb83d25c6a5d258561330739951487acb4bd09ba5190b5d32c4f261817d9067928584604051610bb5929190612560565b60405180910390a38160070154826006015410610c5f5760018260080160016101000a81548160ff021916908315150217905550816004015482600301541115610c16576001826008015f6101000a81548160ff0219169083151502179055505b837f181ceb7d7b10ab91fa8ec81084398240cf78f4b285d025a67343af85a448d63e836008015f9054906101000a900460ff16604051610c569190611a66565b60405180910390a25b50505050565b606060048054610c7490611fd9565b80601f0160208091040260200160405190810160405280929190818152602001828054610ca090611fd9565b8015610ceb5780601f10610cc257610100808354040283529160200191610ceb565b820191905f5260205f20905b815481529060010190602001808311610cce57829003601f168201915b5050505050905090565b610cfd61187d565b6006805490508210610d44576040517f08c379a0000000000000000000000000000000000000000000000000000000008152600401610d3b906123ff565b60405180910390fd5b5f8211610d86576040517f08c379a0000000000000000000000000000000000000000000000000000000008152600401610d7d906125d1565b60405180910390fd5b5f60068381548110610d9b57610d9a6120f7565b5b905f5260205f20906009020190505f610db5825f0161178c565b67ffffffffffffffff811115610dce57610dcd611b5e565b5b604051908082528060200260200182016040528015610dfc5781602001602082028036833780820191505090505b5090505f5b610e0c835f0161178c565b811015610e8857610e2881845f0161179f90919063ffffffff16565b828281518110610e3b57610e3a6120f7565b5b602002602001019073ffffffffffffffffffffffffffffffffffffffff16908173ffffffffffffffffffffffffffffffffffffffff16815250508080610e80906125ef565b915050610e01565b50604051806101200160405280828152602001836002018054610eaa90611fd9565b80601f0160208091040260200160405190810160405280929190818152602001828054610ed690611fd9565b8015610f215780601f10610ef857610100808354040283529160200191610f21565b820191905f5260205f20905b815481529060010190602001808311610f0457829003601f168201915b505050505081526020018360030154815260200183600401548152602001836005015481526020018360060154815260200183600701548152602001836008015f9054906101000a900460ff16151581526020018360080160019054906101000a900460ff16151581525092505050919050565b5f80610f9f611123565b90505f610fac828661104f565b905083811015610ff1576040517f08c379a0000000000000000000000000000000000000000000000000000000008152600401610fe8906126a6565b60405180910390fd5b610ffe828686840361112a565b60019250505092915050565b5f80611014611123565b9050611021818585611378565b600191505092915050565b5f6110356104b9565b620f424061104391906120c4565b905090565b620f424081565b5f60015f8473ffffffffffffffffffffffffffffffffffffffff1673ffffffffffffffffffffffffffffffffffffffff1681526020019081526020015f205f8373ffffffffffffffffffffffffffffffffffffffff1673ffffffffffffffffffffffffffffffffffffffff1681526020019081526020015f2054905092915050565b5f60055f8373ffffffffffffffffffffffffffffffffffffffff1673ffffffffffffffffffffffffffffffffffffffff1681526020019081526020015f205f9054906101000a900460ff169050919050565b5f33905090565b5f73ffffffffffffffffffffffffffffffffffffffff168373ffffffffffffffffffffffffffffffffffffffff1603611198576040517f08c379a000000000000000000000000000000000000000000000000000000000815260040161118f90612734565b60405180910390fd5b5f73ffffffffffffffffffffffffffffffffffffffff168273ffffffffffffffffffffffffffffffffffffffff1603611206576040517f08c379a00000000000000000000000000000000000000000000000000000000081526004016111fd906127c2565b60405180910390fd5b8060015f8573ffffffffffffffffffffffffffffffffffffffff1673ffffffffffffffffffffffffffffffffffffffff1681526020019081526020015f205f8473ffffffffffffffffffffffffffffffffffffffff1673ffffffffffffffffffffffffffffffffffffffff1681526020019081526020015f20819055508173ffffffffffffffffffffffffffffffffffffffff168373ffffffffffffffffffffffffffffffffffffffff167f8c5be1e5ebec7d5bd14f71427d1e84f3dd0314c0f7b2291e5b200ac8c7c3b925836040516112e09190611a8e565b60405180910390a3505050565b5f6112f8848461104f565b90507fffffffffffffffffffffffffffffffffffffffffffffffffffffffffffffffff81146113725781811015611364576040517f08c379a000000000000000000000000000000000000000000000000000000000815260040161135b9061282a565b60405180910390fd5b611371848484840361112a565b5b50505050565b5f73ffffffffffffffffffffffffffffffffffffffff168373ffffffffffffffffffffffffffffffffffffffff16036113e6576040517f08c379a00000000000000000000000000000000000000000000000000000000081526004016113dd906128b8565b60405180910390fd5b5f73ffffffffffffffffffffffffffffffffffffffff168273ffffffffffffffffffffffffffffffffffffffff1603611454576040517f08c379a000000000000000000000000000000000000000000000000000000000815260040161144b90612946565b60405180910390fd5b61145f8383836117b6565b5f805f8573ffffffffffffffffffffffffffffffffffffffff1673ffffffffffffffffffffffffffffffffffffffff1681526020019081526020015f20549050818110156114e2576040517f08c379a00000000000000000000000000000000000000000000000000000000081526004016114d9906129d4565b60405180910390fd5b8181035f808673ffffffffffffffffffffffffffffffffffffffff1673ffffffffffffffffffffffffffffffffffffffff1681526020019081526020015f2081905550815f808573ffffffffffffffffffffffffffffffffffffffff1673ffffffffffffffffffffffffffffffffffffffff1681526020019081526020015f205f82825401925050819055508273ffffffffffffffffffffffffffffffffffffffff168473ffffffffffffffffffffffffffffffffffffffff167fddf252ad1be2c89b69c2b068fc378daa952ba7f163c4a11628f55a4df523b3ef846040516115cb9190611a8e565b60405180910390a36115de8484846117bb565b50505050565b5f73ffffffffffffffffffffffffffffffffffffffff168273ffffffffffffffffffffffffffffffffffffffff1603611652576040517f08c379a000000000000000000000000000000000000000000000000000000000815260040161164990612a3c565b60405180910390fd5b61165d5f83836117b6565b8060025f82825461166e9190612036565b92505081905550805f808473ffffffffffffffffffffffffffffffffffffffff1673ffffffffffffffffffffffffffffffffffffffff1681526020019081526020015f205f82825401925050819055508173ffffffffffffffffffffffffffffffffffffffff165f73ffffffffffffffffffffffffffffffffffffffff167fddf252ad1be2c89b69c2b068fc378daa952ba7f163c4a11628f55a4df523b3ef8360405161171b9190611a8e565b60405180910390a361172e5f83836117bb565b5050565b5f611757835f018373ffffffffffffffffffffffffffffffffffffffff165f1b6117c0565b905092915050565b5f611784835f018373ffffffffffffffffffffffffffffffffffffffff165f1b6117e0565b905092915050565b5f611798825f01611847565b9050919050565b5f6117ac835f0183611856565b5f1c905092915050565b505050565b505050565b5f80836001015f8481526020019081526020015f20541415905092915050565b5f6117eb83836117c0565b61183d57825f0182908060018154018082558091505060019003905f5260205f20015f9091909190915055825f0180549050836001015f8481526020019081526020015f208190555060019050611841565b5f90505b92915050565b5f815f01805490509050919050565b5f825f01828154811061186c5761186b6120f7565b5b905f5260205f200154905092915050565b60405180610120016040528060608152602001606081526020015f81526020015f81526020015f81526020015f81526020015f81526020015f151581526020015f151581525090565b5f81519050919050565b5f82825260208201905092915050565b5f5b838110156118fd5780820151818401526020810190506118e2565b5f8484015250505050565b5f601f19601f8301169050919050565b5f611922826118c6565b61192c81856118d0565b935061193c8185602086016118e0565b61194581611908565b840191505092915050565b5f6020820190508181035f8301526119688184611918565b905092915050565b5f604051905090565b5f80fd5b5f80fd5b5f73ffffffffffffffffffffffffffffffffffffffff82169050919050565b5f6119aa82611981565b9050919050565b6119ba816119a0565b81146119c4575f80fd5b50565b5f813590506119d5816119b1565b92915050565b5f819050919050565b6119ed816119db565b81146119f7575f80fd5b50565b5f81359050611a08816119e4565b92915050565b5f8060408385031215611a2457611a23611979565b5b5f611a31858286016119c7565b9250506020611a42858286016119fa565b9150509250929050565b5f8115159050919050565b611a6081611a4c565b82525050565b5f602082019050611a795f830184611a57565b92915050565b611a88816119db565b82525050565b5f602082019050611aa15f830184611a7f565b92915050565b5f805f60608486031215611abe57611abd611979565b5b5f611acb868287016119c7565b9350506020611adc868287016119c7565b9250506040611aed868287016119fa565b9150509250925092565b5f60ff82169050919050565b611b0c81611af7565b82525050565b5f602082019050611b255f830184611b03565b92915050565b5f60208284031215611b4057611b3f611979565b5b5f611b4d848285016119c7565b91505092915050565b5f80fd5b5f80fd5b7f4e487b71000000000000000000000000000000000000000000000000000000005f52604160045260245ffd5b611b9482611908565b810181811067ffffffffffffffff82111715611bb357611bb2611b5e565b5b80604052505050565b5f611bc5611970565b9050611bd18282611b8b565b919050565b5f67ffffffffffffffff821115611bf057611bef611b5e565b5b611bf982611908565b9050602081019050919050565b828183375f83830152505050565b5f611c26611c2184611bd6565b611bbc565b905082815260208101848484011115611c4257611c41611b5a565b5b611c4d848285611c06565b509392505050565b5f82601f830112611c6957611c68611b56565b5b8135611c79848260208601611c14565b91505092915050565b5f8060408385031215611c9857611c97611979565b5b5f83013567ffffffffffffffff811115611cb557611cb461197d565b5b611cc185828601611c55565b9250506020611cd2858286016119fa565b9150509250929050565b60038110611ce8575f80fd5b50565b5f81359050611cf981611cdc565b92915050565b5f8060408385031215611d1557611d14611979565b5b5f611d22858286016119fa565b9250506020611d3385828601611ceb565b9150509250929050565b5f60208284031215611d5257611d51611979565b5b5f611d5f848285016119fa565b91505092915050565b5f81519050919050565b5f82825260208201905092915050565b5f819050602082019050919050565b611d9a816119a0565b82525050565b5f611dab8383611d91565b60208301905092915050565b5f602082019050919050565b5f611dcd82611d68565b611dd78185611d72565b9350611de283611d82565b805f5b83811015611e12578151611df98882611da0565b9750611e0483611db7565b925050600181019050611de5565b5085935050505092915050565b5f82825260208201905092915050565b5f611e39826118c6565b611e438185611e1f565b9350611e538185602086016118e0565b611e5c81611908565b840191505092915050565b611e70816119db565b82525050565b611e7f81611a4c565b82525050565b5f61012083015f8301518482035f860152611ea08282611dc3565b91505060208301518482036020860152611eba8282611e2f565b9150506040830151611ecf6040860182611e67565b506060830151611ee26060860182611e67565b506080830151611ef56080860182611e67565b5060a0830151611f0860a0860182611e67565b5060c0830151611f1b60c0860182611e67565b5060e0830151611f2e60e0860182611e76565b50610100830151611f43610100860182611e76565b508091505092915050565b5f6020820190508181035f830152611f668184611e85565b905092915050565b5f8060408385031215611f8457611f83611979565b5b5f611f91858286016119c7565b9250506020611fa2858286016119c7565b9150509250929050565b7f4e487b71000000000000000000000000000000000000000000000000000000005f52602260045260245ffd5b5f6002820490506001821680611ff057607f821691505b60208210810361200357612002611fac565b5b50919050565b7f4e487b71000000000000000000000000000000000000000000000000000000005f52601160045260245ffd5b5f612040826119db565b915061204b836119db565b925082820190508082111561206357612062612009565b5b92915050565b5f819050919050565b5f819050919050565b5f61209561209061208b84612069565b612072565b6119db565b9050919050565b6120a58161207b565b82525050565b5f6020820190506120be5f83018461209c565b92915050565b5f6120ce826119db565b91506120d9836119db565b92508282039050818111156120f1576120f0612009565b5b92915050565b7f4e487b71000000000000000000000000000000000000000000000000000000005f52603260045260245ffd5b5f819050815f5260205f209050919050565b5f6020601f8301049050919050565b5f82821b905092915050565b5f600883026121807fffffffffffffffffffffffffffffffffffffffffffffffffffffffffffffffff82612145565b61218a8683612145565b95508019841693508086168417925050509392505050565b5f6121bc6121b76121b2846119db565b612072565b6119db565b9050919050565b5f819050919050565b6121d5836121a2565b6121e96121e1826121c3565b848454612151565b825550505050565b5f90565b6121fd6121f1565b6122088184846121cc565b505050565b5b8181101561222b576122205f826121f5565b60018101905061220e565b5050565b601f8211156122705761224181612124565b61224a84612136565b81016020851015612259578190505b61226d61226585612136565b83018261220d565b50505b505050565b5f82821c905092915050565b5f6122905f1984600802612275565b1980831691505092915050565b5f6122a88383612281565b9150826002028217905092915050565b6122c1826118c6565b67ffffffffffffffff8111156122da576122d9611b5e565b5b6122e48254611fd9565b6122ef82828561222f565b5f60209050601f831160018114612320575f841561230e578287015190505b612318858261229d565b86555061237f565b601f19841661232e86612124565b5f5b8281101561235557848901518255600182019150602085019450602081019050612330565b86831015612372578489015161236e601f891682612281565b8355505b6001600288020188555050505b505050505050565b5f6040820190508181035f83015261239f8185611918565b90506123ae6020830184611a7f565b9392505050565b7f497373756520646f6573206e6f742065786973740000000000000000000000005f82015250565b5f6123e96014836118d0565b91506123f4826123b5565b602082019050919050565b5f6020820190508181035f830152612416816123dd565b9050919050565b7f43616e6e6f7420766f7465206f6e206275726e656420697373756500000000005f82015250565b5f612451601b836118d0565b915061245c8261241d565b602082019050919050565b5f6020820190508181035f83015261247e81612445565b9050919050565b7f4e6f20746f6b656e7320746f20766f74652077697468000000000000000000005f82015250565b5f6124b96016836118d0565b91506124c482612485565b602082019050919050565b5f6020820190508181035f8301526124e6816124ad565b9050919050565b7f4e487b71000000000000000000000000000000000000000000000000000000005f52602160045260245ffd5b6003811061252b5761252a6124ed565b5b50565b5f81905061253b8261251a565b919050565b5f61254a8261252e565b9050919050565b61255a81612540565b82525050565b5f6040820190506125735f830185612551565b6125806020830184611a7f565b9392505050565b7f43616e6e6f7420616363657373206275726e65642069737375650000000000005f82015250565b5f6125bb601a836118d0565b91506125c682612587565b602082019050919050565b5f6020820190508181035f8301526125e8816125af565b9050919050565b5f6125f9826119db565b91507fffffffffffffffffffffffffffffffffffffffffffffffffffffffffffffffff820361262b5761262a612009565b5b600182019050919050565b7f45524332303a2064656372656173656420616c6c6f77616e63652062656c6f775f8201527f207a65726f000000000000000000000000000000000000000000000000000000602082015250565b5f6126906025836118d0565b915061269b82612636565b604082019050919050565b5f6020820190508181035f8301526126bd81612684565b9050919050565b7f45524332303a20617070726f76652066726f6d20746865207a65726f206164645f8201527f7265737300000000000000000000000000000000000000000000000000000000602082015250565b5f61271e6024836118d0565b9150612729826126c4565b604082019050919050565b5f6020820190508181035f83015261274b81612712565b9050919050565b7f45524332303a20617070726f766520746f20746865207a65726f2061646472655f8201527f7373000000000000000000000000000000000000000000000000000000000000602082015250565b5f6127ac6022836118d0565b91506127b782612752565b604082019050919050565b5f6020820190508181035f8301526127d9816127a0565b9050919050565b7f45524332303a20696e73756666696369656e7420616c6c6f77616e63650000005f82015250565b5f612814601d836118d0565b915061281f826127e0565b602082019050919050565b5f6020820190508181035f83015261284181612808565b9050919050565b7f45524332303a207472616e736665722066726f6d20746865207a65726f2061645f8201527f6472657373000000000000000000000000000000000000000000000000000000602082015250565b5f6128a26025836118d0565b91506128ad82612848565b604082019050919050565b5f6020820190508181035f8301526128cf81612896565b9050919050565b7f45524332303a207472616e7366657220746f20746865207a65726f20616464725f8201527f6573730000000000000000000000000000000000000000000000000000000000602082015250565b5f6129306023836118d0565b915061293b826128d6565b604082019050919050565b5f6020820190508181035f83015261295d81612924565b9050919050565b7f45524332303a207472616e7366657220616d6f756e74206578636565647320625f8201527f616c616e63650000000000000000000000000000000000000000000000000000602082015250565b5f6129be6026836118d0565b91506129c982612964565b604082019050919050565b5f6020820190508181035f8301526129eb816129b2565b9050919050565b7f45524332303a206d696e7420746f20746865207a65726f2061646472657373005f82015250565b5f612a26601f836118d0565b9150612a31826129f2565b602082019050919050565b5f6020820190508181035f830152612a5381612a1a565b905091905056fea26469706673582212207fedcb678a03631bec4f5f36e228c875fafd438901c175b69d16fe6360e32d3664736f6c63430008140033","linkReferences":{}},"methodIdentifiers":{"allowance(address,address)":"dd62ed3e","approve(address,uint256)":"095ea7b3","balanceOf(address)":"70a08231","claim()":"4e71d92d","createIssue(string,uint256)":"8615d855","decimals()":"313ce567","decreaseAllowance(address,uint256)":"a457c2d7","getIssue(uint256)":"976b3113","getIssueCount()":"0d4c4708","hasClaimedTokens(address)":"ed613ac1","increaseAllowance(address,uint256)":"39509351","maxSupply()":"d5abeb01","name()":"06fdde03","remainingTokens()":"bf583903","symbol()":"95d89b41","totalSupply()":"18160ddd","transfer(address,uint256)":"a9059cbb","transferFrom(address,address,uint256)":"23b872dd","vote(uint256,uint8)":"943e8216"},"id":46}