{"abi":[{"type":"function","name":"deploy","inputs":[],"outputs":[{"name":"addressBookAddress","type":"address","internalType":"address"}],"stateMutability":"nonpayable"},{"type":"function","name":"deployedAddressBooks","inputs":[{"name":"","type":"uint256","internalType":"uint256"}],"outputs":[{"name":"","type":"address","internalType":"address"}],"stateMutability":"view"},{"type":"function","name":"getAddressBooksByOwner","inputs":[{"name":"owner","type":"address","internalType":"address"}],"outputs":[{"name":"addressBooks","type":"address[]","internalType":"address[]"}],"stateMutability":"view"},{"type":"function","name":"getAllDeployedAddressBooks","inputs":[],"outputs":[{"name":"addressBooks","type":"address[]","internalType":"address[]"}],"stateMutability":"view"},{"type":"function","name":"getDeployedCount","inputs":[],"outputs":[{"name":"count","type":"uint256","internalType":"uint256"}],"stateMutability":"view"},{"type":"function","name":"ownerToAddressBooks","inputs":[{"name":"","type":"address","internalType":"address"},{"name":"","type":"uint256","internalType":"uint256"}],"outputs":[{"name":"","type":"address","internalType":"address"}],"stateMutability":"view"},{"type":"event","name":"AddressBookDeployed","inputs":[{"name":"owner","type":"address","indexed":true,"internalType":"address"},{"name":"addressBook","type":"address","indexed":true,"internalType":"address"}],"anonymous":false}],"bytecode":{"object":"0x608060405234801561000f575f80fd5b506120fe8061001d5f395ff3fe608060405234801561000f575f80fd5b5060043610610060575f3560e01c80630ff6541414610064578063775c300c146100825780638b415d8c146100a0578063a46b6965146100be578063dd149500146100ee578063fd8020871461011e575b5f80fd5b61006c61014e565b60405161007991906104e2565b60405180910390f35b61008a610159565b604051610097919061053a565b60405180910390f35b6100a86102e9565b6040516100b5919061060a565b60405180910390f35b6100d860048036038101906100d39190610658565b610373565b6040516100e5919061060a565b60405180910390f35b610108600480360381019061010391906106ad565b61043b565b604051610115919061053a565b60405180910390f35b610138600480360381019061013391906106d8565b610475565b604051610145919061053a565b60405180910390f35b5f8080549050905090565b5f8033604051610168906104bd565b610172919061053a565b604051809103905ff08015801561018b573d5f803e3d5ffd5b5090508091505f82908060018154018082558091505060019003905f5260205f20015f9091909190916101000a81548173ffffffffffffffffffffffffffffffffffffffff021916908373ffffffffffffffffffffffffffffffffffffffff16021790555060015f3373ffffffffffffffffffffffffffffffffffffffff1673ffffffffffffffffffffffffffffffffffffffff1681526020019081526020015f2082908060018154018082558091505060019003905f5260205f20015f9091909190916101000a81548173ffffffffffffffffffffffffffffffffffffffff021916908373ffffffffffffffffffffffffffffffffffffffff1602179055508173ffffffffffffffffffffffffffffffffffffffff163373ffffffffffffffffffffffffffffffffffffffff167fda9578afd0a05de40ee1e98caa6df8585a3d1ad17fed1bbf4de60789a3d5827d60405160405180910390a35090565b60605f80548060200260200160405190810160405280929190818152602001828054801561036957602002820191905f5260205f20905b815f9054906101000a900473ffffffffffffffffffffffffffffffffffffffff1673ffffffffffffffffffffffffffffffffffffffff1681526020019060010190808311610320575b5050505050905090565b606060015f8373ffffffffffffffffffffffffffffffffffffffff1673ffffffffffffffffffffffffffffffffffffffff1681526020019081526020015f2080548060200260200160405190810160405280929190818152602001828054801561042f57602002820191905f5260205f20905b815f9054906101000a900473ffffffffffffffffffffffffffffffffffffffff1673ffffffffffffffffffffffffffffffffffffffff16815260200190600101908083116103e6575b50505050509050919050565b5f8181548110610449575f80fd5b905f5260205f20015f915054906101000a900473ffffffffffffffffffffffffffffffffffffffff1681565b6001602052815f5260405f20818154811061048e575f80fd5b905f5260205f20015f915091509054906101000a900473ffffffffffffffffffffffffffffffffffffffff1681565b6119b28061071783390190565b5f819050919050565b6104dc816104ca565b82525050565b5f6020820190506104f55f8301846104d3565b92915050565b5f73ffffffffffffffffffffffffffffffffffffffff82169050919050565b5f610524826104fb565b9050919050565b6105348161051a565b82525050565b5f60208201905061054d5f83018461052b565b92915050565b5f81519050919050565b5f82825260208201905092915050565b5f819050602082019050919050565b6105858161051a565b82525050565b5f610596838361057c565b60208301905092915050565b5f602082019050919050565b5f6105b882610553565b6105c2818561055d565b93506105cd8361056d565b805f5b838110156105fd5781516105e4888261058b565b97506105ef836105a2565b9250506001810190506105d0565b5085935050505092915050565b5f6020820190508181035f83015261062281846105ae565b905092915050565b5f80fd5b6106378161051a565b8114610641575f80fd5b50565b5f813590506106528161062e565b92915050565b5f6020828403121561066d5761066c61062a565b5b5f61067a84828501610644565b91505092915050565b61068c816104ca565b8114610696575f80fd5b50565b5f813590506106a781610683565b92915050565b5f602082840312156106c2576106c161062a565b5b5f6106cf84828501610699565b91505092915050565b5f80604083850312156106ee576106ed61062a565b5b5f6106fb85828601610644565b925050602061070c85828601610699565b915050925092905056fe608060405234801562000010575f80fd5b50604051620019b2380380620019b28339818101604052810190620000369190620001a3565b620000566200004a6200007660201b60201c565b6200007d60201b60201c565b62000067816200007d60201b60201c565b600160038190555050620001d3565b5f33905090565b5f805f9054906101000a900473ffffffffffffffffffffffffffffffffffffffff169050815f806101000a81548173ffffffffffffffffffffffffffffffffffffffff021916908373ffffffffffffffffffffffffffffffffffffffff1602179055508173ffffffffffffffffffffffffffffffffffffffff168173ffffffffffffffffffffffffffffffffffffffff167f8be0079c531659141344cd1fd0a4f28419497f9722a3daafe3b4186f6b6457e060405160405180910390a35050565b5f80fd5b5f73ffffffffffffffffffffffffffffffffffffffff82169050919050565b5f6200016d8262000142565b9050919050565b6200017f8162000161565b81146200018a575f80fd5b50565b5f815190506200019d8162000174565b92915050565b5f60208284031215620001bb57620001ba6200013e565b5b5f620001ca848285016200018d565b91505092915050565b6117d180620001e15f395ff3fe608060405234801561000f575f80fd5b5060043610610086575f3560e01c8063b9ed6fca11610059578063b9ed6fca14610100578063e6505e1e1461011c578063ef1d6ddd1461014c578063f2fde38b1461016a57610086565b806336d52ed71461008a5780633f06f6e8146100a8578063715018a6146100d85780638da5cb5b146100e2575b5f80fd5b610092610186565b60405161009f9190610bf3565b60405180910390f35b6100c260048036038101906100bd9190610e47565b610192565b6040516100cf9190610bf3565b60405180910390f35b6100e061026a565b005b6100ea61027d565b6040516100f79190610f2a565b60405180910390f35b61011a60048036038101906101159190610f43565b6102a4565b005b61013660048036038101906101319190610f43565b61040b565b604051610143919061110d565b60405180910390f35b6101546105fc565b6040516101619190611256565b60405180910390f35b610184600480360381019061017f91906112a0565b61092b565b005b5f600280549050905090565b5f61019b6109ad565b600354905060035f8154809291906101b2906112f8565b919050555060405180608001604052808281526020018581526020018481526020018381525060015f8381526020019081526020015f205f820151815f015560208201518160010190816102069190611539565b50604082015181600201908161021c9190611539565b506060820151816003019080519060200190610239929190610af3565b50905050600281908060018154018082558091505060019003905f5260205f20015f90919091909150559392505050565b6102726109ad565b61027b5f610a2b565b565b5f805f9054906101000a900473ffffffffffffffffffffffffffffffffffffffff16905090565b6102ac6109ad565b5f60015f8381526020019081526020015f205f01540361030357806040517ff55dec000000000000000000000000000000000000000000000000000000000081526004016102fa9190610bf3565b60405180910390fd5b60015f8281526020019081526020015f205f8082015f9055600182015f61032a9190610b3e565b600282015f6103399190610b3e565b600382015f6103489190610b7b565b50505f5b60028054905081101561040757816002828154811061036e5761036d611608565b5b905f5260205f200154036103f457600260016002805490506103909190611635565b815481106103a1576103a0611608565b5b905f5260205f200154600282815481106103be576103bd611608565b5b905f5260205f20018190555060028054806103dc576103db611668565b5b600190038181905f5260205f20015f90559055610407565b80806103ff906112f8565b91505061034c565b5050565b610413610b99565b60015f8381526020019081526020015f206040518060800160405290815f82015481526020016001820180546104489061136c565b80601f01602080910402602001604051908101604052809291908181526020018280546104749061136c565b80156104bf5780601f10610496576101008083540402835291602001916104bf565b820191905f5260205f20905b8154815290600101906020018083116104a257829003601f168201915b505050505081526020016002820180546104d89061136c565b80601f01602080910402602001604051908101604052809291908181526020018280546105049061136c565b801561054f5780601f106105265761010080835404028352916020019161054f565b820191905f5260205f20905b81548152906001019060200180831161053257829003601f168201915b50505050508152602001600382018054806020026020016040519081016040528092919081815260200182805480156105a557602002820191905f5260205f20905b815481526020019060010190808311610591575b50505050508152505090505f815f0151036105f757816040517ff55dec000000000000000000000000000000000000000000000000000000000081526004016105ee9190610bf3565b60405180910390fd5b919050565b606060028054905067ffffffffffffffff81111561061d5761061c610c35565b5b60405190808252806020026020018201604052801561065657816020015b610643610b99565b81526020019060019003908161063b5790505b5090505f805b600280549050811015610874575f6002828154811061067e5761067d611608565b5b905f5260205f20015490505f60015f8381526020019081526020015f206040518060800160405290815f82015481526020016001820180546106bf9061136c565b80601f01602080910402602001604051908101604052809291908181526020018280546106eb9061136c565b80156107365780601f1061070d57610100808354040283529160200191610736565b820191905f5260205f20905b81548152906001019060200180831161071957829003601f168201915b5050505050815260200160028201805461074f9061136c565b80601f016020809104026020016040519081016040528092919081815260200182805461077b9061136c565b80156107c65780601f1061079d576101008083540402835291602001916107c6565b820191905f5260205f20905b8154815290600101906020018083116107a957829003601f168201915b505050505081526020016003820180548060200260200160405190810160405280929190818152602001828054801561081c57602002820191905f5260205f20905b815481526020019060010190808311610808575b50505050508152505090505f815f01511461085f578085858151811061084557610844611608565b5b6020026020010181905250838061085b906112f8565b9450505b5050808061086c906112f8565b91505061065c565b505f8167ffffffffffffffff8111156108905761088f610c35565b5b6040519080825280602002602001820160405280156108c957816020015b6108b6610b99565b8152602001906001900390816108ae5790505b5090505f5b82811015610922578381815181106108e9576108e8611608565b5b602002602001015182828151811061090457610903611608565b5b6020026020010181905250808061091a906112f8565b9150506108ce565b50809250505090565b6109336109ad565b5f73ffffffffffffffffffffffffffffffffffffffff168173ffffffffffffffffffffffffffffffffffffffff16036109a1576040517f08c379a000000000000000000000000000000000000000000000000000000000815260040161099890611715565b60405180910390fd5b6109aa81610a2b565b50565b6109b5610aec565b73ffffffffffffffffffffffffffffffffffffffff166109d361027d565b73ffffffffffffffffffffffffffffffffffffffff1614610a29576040517f08c379a0000000000000000000000000000000000000000000000000000000008152600401610a209061177d565b60405180910390fd5b565b5f805f9054906101000a900473ffffffffffffffffffffffffffffffffffffffff169050815f806101000a81548173ffffffffffffffffffffffffffffffffffffffff021916908373ffffffffffffffffffffffffffffffffffffffff1602179055508173ffffffffffffffffffffffffffffffffffffffff168173ffffffffffffffffffffffffffffffffffffffff167f8be0079c531659141344cd1fd0a4f28419497f9722a3daafe3b4186f6b6457e060405160405180910390a35050565b5f33905090565b828054828255905f5260205f20908101928215610b2d579160200282015b82811115610b2c578251825591602001919060010190610b11565b5b509050610b3a9190610bc0565b5090565b508054610b4a9061136c565b5f825580601f10610b5b5750610b78565b601f0160209004905f5260205f2090810190610b779190610bc0565b5b50565b5080545f8255905f5260205f2090810190610b969190610bc0565b50565b60405180608001604052805f81526020016060815260200160608152602001606081525090565b5b80821115610bd7575f815f905550600101610bc1565b5090565b5f819050919050565b610bed81610bdb565b82525050565b5f602082019050610c065f830184610be4565b92915050565b5f604051905090565b5f80fd5b5f80fd5b5f80fd5b5f80fd5b5f601f19601f8301169050919050565b7f4e487b71000000000000000000000000000000000000000000000000000000005f52604160045260245ffd5b610c6b82610c25565b810181811067ffffffffffffffff82111715610c8a57610c89610c35565b5b80604052505050565b5f610c9c610c0c565b9050610ca88282610c62565b919050565b5f67ffffffffffffffff821115610cc757610cc6610c35565b5b610cd082610c25565b9050602081019050919050565b828183375f83830152505050565b5f610cfd610cf884610cad565b610c93565b905082815260208101848484011115610d1957610d18610c21565b5b610d24848285610cdd565b509392505050565b5f82601f830112610d4057610d3f610c1d565b5b8135610d50848260208601610ceb565b91505092915050565b5f67ffffffffffffffff821115610d7357610d72610c35565b5b602082029050602081019050919050565b5f80fd5b610d9181610bdb565b8114610d9b575f80fd5b50565b5f81359050610dac81610d88565b92915050565b5f610dc4610dbf84610d59565b610c93565b90508083825260208201905060208402830185811115610de757610de6610d84565b5b835b81811015610e105780610dfc8882610d9e565b845260208401935050602081019050610de9565b5050509392505050565b5f82601f830112610e2e57610e2d610c1d565b5b8135610e3e848260208601610db2565b91505092915050565b5f805f60608486031215610e5e57610e5d610c15565b5b5f84013567ffffffffffffffff811115610e7b57610e7a610c19565b5b610e8786828701610d2c565b935050602084013567ffffffffffffffff811115610ea857610ea7610c19565b5b610eb486828701610d2c565b925050604084013567ffffffffffffffff811115610ed557610ed4610c19565b5b610ee186828701610e1a565b9150509250925092565b5f73ffffffffffffffffffffffffffffffffffffffff82169050919050565b5f610f1482610eeb565b9050919050565b610f2481610f0a565b82525050565b5f602082019050610f3d5f830184610f1b565b92915050565b5f60208284031215610f5857610f57610c15565b5b5f610f6584828501610d9e565b91505092915050565b610f7781610bdb565b82525050565b5f81519050919050565b5f82825260208201905092915050565b5f5b83811015610fb4578082015181840152602081019050610f99565b5f8484015250505050565b5f610fc982610f7d565b610fd38185610f87565b9350610fe3818560208601610f97565b610fec81610c25565b840191505092915050565b5f81519050919050565b5f82825260208201905092915050565b5f819050602082019050919050565b5f61102b8383610f6e565b60208301905092915050565b5f602082019050919050565b5f61104d82610ff7565b6110578185611001565b935061106283611011565b805f5b838110156110925781516110798882611020565b975061108483611037565b925050600181019050611065565b5085935050505092915050565b5f608083015f8301516110b45f860182610f6e565b50602083015184820360208601526110cc8282610fbf565b915050604083015184820360408601526110e68282610fbf565b915050606083015184820360608601526111008282611043565b9150508091505092915050565b5f6020820190508181035f830152611125818461109f565b905092915050565b5f81519050919050565b5f82825260208201905092915050565b5f819050602082019050919050565b5f608083015f83015161116b5f860182610f6e565b50602083015184820360208601526111838282610fbf565b9150506040830151848203604086015261119d8282610fbf565b915050606083015184820360608601526111b78282611043565b9150508091505092915050565b5f6111cf8383611156565b905092915050565b5f602082019050919050565b5f6111ed8261112d565b6111f78185611137565b93508360208202850161120985611147565b805f5b85811015611244578484038952815161122585826111c4565b9450611230836111d7565b925060208a0199505060018101905061120c565b50829750879550505050505092915050565b5f6020820190508181035f83015261126e81846111e3565b905092915050565b61127f81610f0a565b8114611289575f80fd5b50565b5f8135905061129a81611276565b92915050565b5f602082840312156112b5576112b4610c15565b5b5f6112c28482850161128c565b91505092915050565b7f4e487b71000000000000000000000000000000000000000000000000000000005f52601160045260245ffd5b5f61130282610bdb565b91507fffffffffffffffffffffffffffffffffffffffffffffffffffffffffffffffff8203611334576113336112cb565b5b600182019050919050565b7f4e487b71000000000000000000000000000000000000000000000000000000005f52602260045260245ffd5b5f600282049050600182168061138357607f821691505b6020821081036113965761139561133f565b5b50919050565b5f819050815f5260205f209050919050565b5f6020601f8301049050919050565b5f82821b905092915050565b5f600883026113f87fffffffffffffffffffffffffffffffffffffffffffffffffffffffffffffffff826113bd565b61140286836113bd565b95508019841693508086168417925050509392505050565b5f819050919050565b5f61143d61143861143384610bdb565b61141a565b610bdb565b9050919050565b5f819050919050565b61145683611423565b61146a61146282611444565b8484546113c9565b825550505050565b5f90565b61147e611472565b61148981848461144d565b505050565b5b818110156114ac576114a15f82611476565b60018101905061148f565b5050565b601f8211156114f1576114c28161139c565b6114cb846113ae565b810160208510156114da578190505b6114ee6114e6856113ae565b83018261148e565b50505b505050565b5f82821c905092915050565b5f6115115f19846008026114f6565b1980831691505092915050565b5f6115298383611502565b9150826002028217905092915050565b61154282610f7d565b67ffffffffffffffff81111561155b5761155a610c35565b5b611565825461136c565b6115708282856114b0565b5f60209050601f8311600181146115a1575f841561158f578287015190505b611599858261151e565b865550611600565b601f1984166115af8661139c565b5f5b828110156115d6578489015182556001820191506020850194506020810190506115b1565b868310156115f357848901516115ef601f891682611502565b8355505b6001600288020188555050505b505050505050565b7f4e487b71000000000000000000000000000000000000000000000000000000005f52603260045260245ffd5b5f61163f82610bdb565b915061164a83610bdb565b9250828203905081811115611662576116616112cb565b5b92915050565b7f4e487b71000000000000000000000000000000000000000000000000000000005f52603160045260245ffd5b5f82825260208201905092915050565b7f4f776e61626c653a206e6577206f776e657220697320746865207a65726f20615f8201527f6464726573730000000000000000000000000000000000000000000000000000602082015250565b5f6116ff602683611695565b915061170a826116a5565b604082019050919050565b5f6020820190508181035f83015261172c816116f3565b9050919050565b7f4f776e61626c653a2063616c6c6572206973206e6f7420746865206f776e65725f82015250565b5f611767602083611695565b915061177282611733565b602082019050919050565b5f6020820190508181035f8301526117948161175b565b905091905056fea26469706673582212207a75b892d92358b980ea18aef83e86fa5e2e58be27beeddb89e247adcc05050264736f6c63430008140033a2646970667358221220a2952a27769e2332a519ac22495be029b76e5a4448b1942791252e1ab0cf1f9d64736f6c63430008140033","linkReferences":{}},"methodIdentifiers":{"deploy()":"775c300c","deployedAddressBooks(uint256)":"dd149500","getAddressBooksByOwner(address)":"a46b6965","getAllDeployedAddressBooks()":"8b415d8c","getDeployedCount()":"0ff65414","ownerToAddressBooks(address,uint256)":"fd802087"},"id":33}